:020000040800F2
:1000000000000220D11A0008751800087B180008AB
:1000100081180008871800088D18000800000000EB
:10002000000000000000000000000000931800081D
:10003000A118000800000000AF180008BD18000853
:10004000211B0008211B0008211B0008211B0008A0
:10005000211B0008211B0008C9180008211B0008EB
:10006000211B0008211B0008211B0008211B000880
:10007000211B0008211B0008211B0008211B000870
:10008000211B0008211B0008211B000800000000A4
:10009000000000000000000000000000211B00081C
:1000A000211B0008211B0008211B0008211B000840
:1000B000F1180008211B0008211B0008211B000863
:1000C000211B0008211B0008211B0008211B000820
:1000D000211B0008211B0008211B00080000000054
:1000E000211B0008211B0008211B00080000000044
:1000F000000000000000000000000000211B0008BC
:1001000000000000211B000805190008211B000841
:1001100000000000000000000000000000000000DF
:10012000211B0008211B0008211B0008211B0008BF
:10013000211B00080000000000000000000000007B
:10014000000000000000000000000000211B00086B
:10015000211B0008211B0008211B0008211B00088F
:10016000211B0008211B0008000000000000000007
:10017000000000000000000000000000000000007F
:1001800000000000211B000800000000000000002B
:08019000211B0008211B0008DF
:1001A00010B5054C237833B9044B13B10448AFF3B1
:1001B00000800123237010BDF80100200000000022
:1001C0004CDC000808B5034B1BB103490348AFF3EF
:1001D000008008BD00000000FC0100204CDC00088D
:1001E000034613F8012B002AFBD1181A0138704777
:1001F00001F0FF01102A2BDB10F0070F08D010F8D8
:10020000013B013A8B422DD010F0070F42B3F6D1DB
:10021000F0B441EA012141EA014122F007047FF0F4
:1002200000070023F0E80256083C85EA010586EA4B
:10023000010685FA47F5A3FA87F586FA47F6A5FA87
:1002400087F68EB9EED1F0BC01F0FF0102F0070293
:1002500032B110F8013B013A83EA010313B1F8D13E
:100260000020704701387047002D06BF354603381F
:10027000073815F0010F07D1013015F4807F02BF58
:10028000013015F4C03F0130F0BC0138704700BFA9
:1002900081F0004102E000BF83F0004330B54FEA37
:1002A00041044FEA430594EA050F08BF90EA020FA4
:1002B0001FBF54EA000C55EA020C7FEA645C7FEA37
:1002C000655C00F0E2804FEA5454D4EB5555B8BF5A
:1002D0006D420CDD2C4480EA020281EA030382EACB
:1002E000000083EA010180EA020281EA0303362D5D
:1002F00088BF30BD11F0004F4FEA01314FF4801C30
:100300004CEA113102D0404261EB410113F0004F41
:100310004FEA03334CEA133302D0524263EB4303F8
:1003200094EA050F00F0A780A4F10104D5F1200E96
:100330000DDB02FA0EFC22FA05F2801841F10001F1
:1003400003FA0EF2801843FA05F359410EE0A5F1C5
:1003500020050EF1200E012A03FA0EFC28BF4CF0F6
:10036000020C43FA05F3C01851EBE37101F00045AC
:1003700007D54FF0000EDCF1000C7EEB00006EEBB9
:100380000101B1F5801F1BD3B1F5001F0CD3490843
:100390005FEA30004FEA3C0C04F101044FEA44529A
:1003A00012F5800F80F09A80BCF1004F08BF5FEA21
:1003B000500C50F1000041EB045141EA050130BD01
:1003C0005FEA4C0C404141EB0101013C28BFB1F513
:1003D000801FE9D291F0000F04BF01460020B1FA5E
:1003E00081F308BF2033A3F10B03B3F120020CDA31
:1003F0000C3208DD02F1140CC2F10C0201FA0CF00F
:1004000021FA02F10CE002F11402D8BFC2F1200C73
:1004100001FA02F120FA0CFCDCBF41EA0C01904029
:10042000E41AA2BF01EB0451294330BD6FEA040472
:100430001F3C1CDA0C340EDC04F11404C4F120025D
:1004400020FA04F001FA02F340EA030021FA04F36F
:1004500045EA030130BDC4F10C04C4F1200220FAC6
:1004600002F001FA04F340EA0300294630BD21FA04
:1004700004F0294630BD94F0000F83F4801306BFCA
:1004800081F480110134013D4EE77FEA645C18BFBE
:100490007FEA655C29D094EA050F08BF90EA020F55
:1004A00005D054EA000C04BF1946104630BD91EA4D
:1004B000030F1EBF0021002030BD5FEA545C05D150
:1004C0004000494128BF41F0004130BD14F580048F
:1004D0003CBF01F5801130BD01F0004545F0FE4103
:1004E00041F470014FF0000030BD7FEA645C1ABF38
:1004F000194610467FEA655C1CBF0B46024650EA6F
:10050000013406BF52EA033591EA030F41F400219A
:1005100030BD00BF90F0000F04BF0021704730B520
:100520004FF4806404F132044FF000054FF00001F5
:1005300050E700BF90F0000F04BF0021704730B5B6
:100540004FF4806404F1320410F0004548BF40428B
:100550004FF000013EE700BF42004FEAE2014FEAE0
:1005600031014FEA02701FBF12F07F4393F07F4FBB
:1005700081F06051704732F07F4208BF704793F0BE
:100580007F4F04BF41F40021704730B54FF46074D1
:1005900001F0004521F000411CE700BF50EA0102D4
:1005A00008BF704730B54FF000050AE050EA01027D
:1005B00008BF704730B511F0004502D5404261EBED
:1005C00041014FF4806404F132045FEA915C3FF42E
:1005D000D8AE4FF003025FEADC0C18BF03325FEACB
:1005E000DC0C18BF033202EBDC02C2F1200300FA7C
:1005F00003FC20FA02F001FA03FE40EA0E0021FAA1
:1006000002F11444BDE600BF70B54FF0FF0C4CF48E
:10061000E06C1CEA11541DBF1CEA135594EA0C0F40
:1006200095EA0C0F00F0DEF82C4481EA030621EA7B
:100630004C5123EA4C5350EA013518BF52EA0335B6
:1006400041F4801143F4801338D0A0FB02CE4FF068
:100650000005E1FB02E506F00042E0FB03E54FF098
:100660000006E1FB03569CF0000F18BF4EF0010E90
:10067000A4F1FF04B6F5007F64F5407404D25FEA8C
:100680004E0E6D4146EB060642EAC62141EA55513F
:100690004FEAC52040EA5E504FEACE2EB4F1FD0C81
:1006A00088BFBCF5E06F1ED8BEF1004F08BF5FEAFF
:1006B000500E50F1000041EB045170BD06F00046B1
:1006C00046EA010140EA020081EA0301B4EB5C045E
:1006D000C2BFD4EB0C0541EA045170BD41F4801156
:1006E0004FF0000E013C00F3AB8014F1360FDEBF7B
:1006F000002001F0004170BDC4F10004203C35DA57
:100700000C341BDC04F11404C4F1200500FA05F3D9
:1007100020FA04F001FA05F240EA020001F000427A
:1007200021F0004110EBD37021FA04F642EB0601F0
:100730005EEA430E08BF20EAD37070BDC4F10C041A
:10074000C4F1200500FA04F320FA05F001FA04F2DE
:1007500040EA020001F0004110EBD37041F10001CA
:100760005EEA430E08BF20EAD37070BDC4F12005D5
:1007700000FA05F24EEA020E20FA04F301FA05F23D
:1007800043EA020321FA04F001F0004121FA04F2E5
:1007900020EA020000EBD3705EEA430E08BF20EAB5
:1007A000D37070BD94F0000F0FD101F000464000EF
:1007B00041EB010111F4801F08BF013CF7D041EA71
:1007C000060195F0000F18BF704703F00046520075
:1007D00043EB030313F4801F08BF013DF7D043EA46
:1007E0000603704794EA0C0F0CEA135518BF95EAFC
:1007F0000C0F0CD050EA410618BF52EA4306D1D183
:1008000081EA030101F000414FF0000070BD50EAA1
:10081000410606BF1046194652EA430619D094EA2B
:100820000C0F02D150EA013613D195EA0C0F05D115
:1008300052EA03361CBF104619460AD181EA030169
:1008400001F0004141F0FE4141F470014FF0000021
:1008500070BD41F0FE4141F4780170BD70B54FF0BC
:10086000FF0C4CF4E06C1CEA11541DBF1CEA13553C
:1008700094EA0C0F95EA0C0F00F0A7F8A4EB05041E
:1008800081EA030E52EA03354FEA013100F0888015
:100890004FEA03334FF0805545EA131343EA1263DE
:1008A0004FEA022245EA111545EA10654FEA002693
:1008B0000EF000419D4208BF964244F1FD0404F54C
:1008C000407402D25B084FEA3202B61A65EB0305A8
:1008D0005B084FEA32024FF480104FF4002CB6EB65
:1008E000020E75EB030E22BFB61A754640EA0C00E5
:1008F0005B084FEA3202B6EB020E75EB030E22BF25
:10090000B61A754640EA5C005B084FEA3202B6EB65
:10091000020E75EB030E22BFB61A754640EA9C0024
:100920005B084FEA3202B6EB020E75EB030E22BFF4
:10093000B61A754640EADC0055EA060E18D04FEAB2
:10094000051545EA16754FEA06164FEAC30343EA52
:1009500052734FEAC2025FEA1C1CC0D111F4801F1F
:100960000BD141EA00014FF000004FF0004CB6E718
:1009700011F4801F04BF01430020B4F1FD0C88BFB7
:10098000BCF5E06F3FF6AFAEB5EB030C04BFB6EBC2
:10099000020C5FEA500C50F1000041EB045170BDB5
:1009A0000EF0004E4EEA113114EB5C04C2BFD4EBE2
:1009B0000C0541EA045170BD41F480114FF0000E66
:1009C000013C90E645EA060E8DE60CEA135594EAE2
:1009D0000C0F08BF95EA0C0F3FF43BAF94EA0C0FE5
:1009E0000AD150EA01347FF434AF95EA0C0F7FF45A
:1009F00025AF104619462CE795EA0C0F06D152EAAE
:100A000003353FF4FDAE1046194622E750EA410691
:100A100018BF52EA43067FF4C5AE50EA41047FF4A2
:100A20000DAF52EA43057FF4EBAE12E74FF0FF3C07
:100A300006E000BF4FF0010C02E000BF4FF0010CD8
:100A40004DF804CD4FEA410C7FEA6C5C4FEA430C51
:100A500018BF7FEA6C5C1BD001B050EA410C0CBFA0
:100A600052EA430C91EA030F02BF90EA020F002002
:100A7000704710F1000F91EA030F58BF994208BF69
:100A800090422CBFD8176FEAE37040F00100704726
:100A90004FEA410C7FEA6C5C02D150EA013C07D17D
:100AA0004FEA430C7FEA6C5CD6D152EA033CD3D0C8
:100AB0005DF8040B704700BF8446104662468C46C2
:100AC0001946634600E000BF01B5FFF7B7FF0028F5
:100AD00048BF10F1000F01BD4DF808EDFFF7F4FF1E
:100AE0000CBF012000205DF808FB00BF4DF808EDA9
:100AF000FFF7EAFF34BF012000205DF808FB00BFCC
:100B00004DF808EDFFF7E0FF94BF012000205DF8ED
:100B100008FB00BF4DF808EDFFF7CEFF94BF0120A2
:100B200000205DF808FB00BF4DF808EDFFF7C4FF9B
:100B300034BF012000205DF808FB00BF4FEA410CE4
:100B40007FEA6C5C02D150EA013C0AD14FEA430CC7
:100B50007FEA6C5C02D152EA033C02D14FF0000004
:100B600070474FF0010070474FEA410212F5001242
:100B700015D211D56FF47873B3EB625212D94FEAE4
:100B8000C12343F0004343EA505311F0004F23FACE
:100B900002F018BF404270474FF00000704750EA23
:100BA000013005D111F0004008BF6FF000407047E0
:100BB0004FF00000704700BF4A0011D212F500123A
:100BC00011D20DD56FF47873B3EB62520ED44FEAA5
:100BD000C12343F0004343EA505323FA02F0704725
:100BE0004FF00000704750EA013002D14FF0FF3063
:100BF00070474FF0000070474FEA4102B2F1E04306
:100C000024BFB3F5001CDCF1FE5C0DD901F0004CF3
:100C10004FEAC0024CEA5070B2F1004F40EB830043
:100C200008BF20F00100704711F0804F21D113F16F
:100C30003872BCBF01F00040704741F480114FEAA8
:100C40005252C2F11802C2F1200C10FA0CF320FA31
:100C500002F018BF40F001004FEAC1234FEAD3234E
:100C600003FA0CFC40EA0C0023FA02F34FEA4303B8
:100C7000CCE77FEA625307D150EA01331EBF4FF041
:100C8000FE4040F44000704701F0004040F0FE405C
:100C900040F40000704700BF53B94AB9002908BFAB
:100CA00000281CBF4FF0FF314FF0FF3000F074B947
:100CB000ADF1080C6DE904CE00F006F8DDF804E0B3
:100CC000DDE9022304B070472DE9F047089D044692
:100CD0008E46002B4DD18A42944669D9B2FA82F2EF
:100CE00052B101FA02F3C2F1200120FA01F10CFA2B
:100CF00002FC41EA030E94404FEA1C48210CBEFB63
:100D0000F8F61FFA8CF708FB16E341EA034306FBEB
:100D100007F199420AD91CEB030306F1FF3080F07A
:100D20001F81994240F21C81023E63445B1AA4B2C7
:100D3000B3FBF8F008FB103344EA034400FB07F769
:100D4000A7420AD91CEB040400F1FF3380F00A81AA
:100D5000A74240F207816444023840EA0640E41B9F
:100D600000261DB1D4400023C5E900433146BDE84B
:100D7000F0878B4209D9002D00F0EF800026C5E9ED
:100D8000000130463146BDE8F087B3FA83F6002E05
:100D90004AD18B4202D3824200F2F980841A61EB7D
:100DA000030301209E46002DE0D0C5E9004EDDE79B
:100DB00002B9FFDEB2FA82F2002A40F09280A1EB83
:100DC0000C014FEA1C471FFA8CFE0126200CB1FBD8
:100DD000F7F307FB131140EA01410EFB03F08842D1
:100DE00008D91CEB010103F1FF3802D2884200F25E
:100DF000CB804346091AA4B2B1FBF7F007FB1011F0
:100E000044EA01440EFB00FEA64508D91CEB04048D
:100E100000F1FF3102D2A64500F2BB800846A4EBE8
:100E20000E0440EA03409CE7C6F12007B34022FAD3
:100E300007FC4CEA030C20FA07F401FA06F31C4302
:100E4000F9404FEA1C4900FA06F3B1FBF9F8200C0F
:100E50001FFA8CFE09FB181140EA014108FB0EF055
:100E6000884202FA06F20BD91CEB010108F1FF3AA5
:100E700080F08880884240F28580A8F102086144B1
:100E8000091AA4B2B1FBF9F009FB101144EA0141BF
:100E900000FB0EFE8E4508D91CEB010100F1FF346A
:100EA0006CD28E456AD90238614440EA0840A0FB02
:100EB0000294A1EB0E01A142C846A64656D353D0D8
:100EC0005DB1B3EB080261EB0E0101FA07F722FAFC
:100ED00006F3F1401F43C5E9007100263146BDE825
:100EE000F087C2F12003D8400CFA02FC21FA03F388
:100EF000914001434FEA1C471FFA8CFEB3FBF7F009
:100F000007FB10360B0C43EA064300FB0EF69E422D
:100F100004FA02F408D91CEB030300F1FF382FD2C6
:100F20009E422DD9023863449B1B89B2B3FBF7F66E
:100F300007FB163341EA034106FB0EF38B4208D947
:100F40001CEB010106F1FF3816D28B4214D9023E88
:100F50006144C91A46EA004638E72E46284605E7A6
:100F60000646E3E61846F8E64B45A9D2B9EB020877
:100F700064EB0C0E0138A3E74646EAE7204694E707
:100F80004046D1E7D0467BE7023B614432E730463A
:100F900009E76444023842E7704700BFB0B5ADF5D9
:100FA000707D1AAF03F09CF900F026F900F0ACFA5E
:100FB00000F080F900F0ACF900F07CFA00F0DEF906
:100FC00000F02AFA7D4C3B46184607F099FB07F5DE
:100FD0005673A3F556731D4628686968AA68EB68BE
:100FE0000FC42B7C2370764B1B687649184608F09B
:100FF00055FB734B1B687449184608F04FFB08F00B
:1010000041FB6F4B1B687149184608F047FB07F519
:10101000E273C8220021184609F08AFE002008F079
:10102000F3FD08F091FD664B1B686949184608F00E
:1010300035FB684B1B78052BFBD801A252F823F037
:10104000B11000080111000859100008D110000863
:10105000E91000082911000808F06AFE09F0FEF9FD
:1010600009F05EFA09F096FA07F18C03184608F0C9
:10107000BBFF534B1B685849184608F00FFB07F598
:101080005673A3F5337407F52375684604F10C0312
:101090006422194609F03EFE94E80E00284607F047
:1010A000C7FB034687F857334A4B00221A7083E088
:1010B00007F5E27297F8571307F52373184608F0FF
:1010C00089F8034687F85733424B03221A7073E0BE
:1010D00097F8571307F5E2739922184608F05CF861
:1010E0003C4B05221A7067E0354B1B683B4918469C
:1010F00008F0D4FA08F00CFD364B05221A705BE0BC
:1011000007F5E27207F1FC031146184608F08EF964
:1011100007F11C0207F1FC031146184607F000FD19
:101120002C4B04221A7047E02D4B1B78012B42D127
:10113000234B1B682B49184608F0B0FA284B0022B5
:101140001A70294B1B7803F00103DBB2002B08D087
:101150001B4B1B682549184608F0A0FA1D4B0122BD
:101160001A70214B1B7803F00203DBB2002B02D074
:10117000184B04221A701C4B1B7803F00403DBB2DB
:10118000002B08D00E4B1B681949184608F086FA48
:10119000104B04221A70144BDB7803F04003DBB2CF
:1011A000002B08D0064B1B681249184608F076FA47
:1011B000084B05221A7000BF3BE700BF98030020D0
:1011C0000000002070DC0008A4DC0008C0DC00087F
:1011D000D4DC000804000020E4DC0008F8DC00088F
:1011E000940300200CDD0008AC0300201CDD000887
:1011F0002CDD000838DD000880B594B000AF07F1A1
:10120000200330220021184609F092FD07F10C035B
:1012100000221A605A609A60DA601A610023BB608B
:10122000224B1B6C214A43F0805313641F4B1B6CF1
:1012300003F08053BB60BB6800237B601C4B1B68C2
:101240001B4A43F440431360194B1B6803F44043AB
:101250007B607B6802233B620123FB6210233B63BC
:101260000023BB6307F12003184605F009F8034685
:10127000002B01D000F0B4F90F23FB6000233B6189
:1012800000237B610023BB610023FB6107F10C039A
:101290000021184605F06CFA0346002B01D000F03F
:1012A0009FF900BF5037BD4680BD00BF00380240E7
:1012B0000070004080B500AF124B134A1A60114B0A
:1012C000124A5A600F4B00229A600E4B0022DA60DD
:1012D0000C4B4FF480421A610A4B00225A61094BB1
:1012E00000229A61074B0022DA61064B00221A6243
:1012F000044803F091FB0346002B01D000F070F985
:1013000000BF80BD1402002000540040A0860100F0
:1013100080B500AF174B184A1A60164B4FF4827213
:101320005A60144B00229A60124B0022DA60114B73
:1013300000221A610F4B00225A610E4B4FF40072CB
:101340009A610C4B1822DA610A4B00221A62094B8F
:1013500000225A62074B00229A62064B0A22DA6286
:10136000044805F0E5FB0346002B01D000F038F9F6
:1013700000BF80BD680200200030014080B586B00B
:1013800000AF07F1080300221A605A609A60DA6021
:101390003B4600221A605A601E4B4FF080421A6092
:1013A0001C4B45F6C0525A601A4B00229A60194BEA
:1013B00044F62062DA60174B00221A61154B0022B6
:1013C0009A61144806F05CF90346002B01D000F046
:1013D00007F94FF48053BB6007F1080319460D4825
:1013E00006F037FB0346002B01D000F0F9F800238C
:1013F0003B6000237B603B461946064806F03CFDF7
:101400000346002B01D000F0EBF800BF1837BD46B3
:1014100080BD00BFC002002080B586B000AF07F1DC
:10142000080300221A605A609A60DA603B46002284
:101430001A605A601D4B1E4A1A601C4B4FF47A7298
:101440005A601A4B00229A60184B0522DA60174B3B
:1014500000221A61154B80229A61144806F010F997
:101460000346002B01D000F0BBF84FF48053BB6063
:1014700007F1080319460D4806F0EBFA0346002B66
:1014800001D000F0ADF800233B6000237B603B46B9
:101490001946064806F0F0FC0346002B01D000F088
:1014A0009FF800BF1837BD4680BD00BF080300206D
:1014B000000C004080B500AF114B124A1A60104B6F
:1014C0004FF4E1325A600E4B00229A600C4B00221E
:1014D000DA600B4B00221A61094B0C225A61084B4F
:1014E00000229A61064B0022DA61054806F046FDAB
:1014F0000346002B01D000F073F800BF80BD00BF91
:10150000500300200010014080B588B000AF07F103
:101510000C0300221A605A609A60DA601A61002394
:10152000BB602C4B1B6B2B4A43F001031363294B0D
:101530001B6B03F00103BB60BB6800237B60254B82
:101540001B6B244A43F002031363224B1B6B03F013
:1015500002037B607B68002210211F4803F01EFA03
:10156000002202211D4803F019FA1023FB60012319
:101570003B6100237B610023BB6107F10C0319462B
:10158000154803F087F80123FB604FF404133B6117
:1015900000237B6107F10C031946104803F07AF829
:1015A0000223FB6001233B6100237B610023BB61BD
:1015B00007F10C031946094803F06CF800220021DA
:1015C000062003F022F8062003F03BF800BF203786
:1015D000BD4680BD003802400000024000040240C9
:1015E00080B400AF72B600BFFEE7000080B483B0E5
:1015F00000AF00237B60104B5B6C0F4A43F48043C9
:1016000053640D4B5B6C03F480437B607B68002369
:101610003B60094B1B6C084A43F080531364064B34
:101620001B6C03F080533B603B6800BF0C37BD462A
:101630005DF8047B704700BF0038024080B58AB077
:1016400000AF786007F1140300221A605A609A60B4
:10165000DA601A617B681B68194A93422BD1002318
:101660003B61184B1B6B174A43F002031363154B86
:101670001B6B03F002033B613B69C0237B611223B8
:10168000BB610023FB6103233B6204237B6207F100
:10169000140319460C4802F0FDFF0023FB60094BC0
:1016A0001B6C084A43F400131364064B1B6C03F4D1
:1016B0000013FB60FB6800BF2837BD4680BD00BF3C
:1016C00000540040003802400004024080B58AB057
:1016D00000AF786007F1140300221A605A609A6024
:1016E000DA601A617B681B68194A93422BD1002388
:1016F0003B61184B5B6C174A43F480535364154BA2
:101700005B6C03F480533B613B690023FB60114B2E
:101710001B6B104A43F0010313630E4B1B6B03F06A
:101720000103FB60FB68E0237B610223BB610023B4
:10173000FB6103233B6205237B6207F11403194617
:10174000054802F0A7FF00BF2837BD4680BD00BF97
:1017500000300140003802400000024080B584B0F3
:1017600000AF78607B681B68B3F1804F16D100230F
:10177000FB601A4B1B6C194A43F001031364174BAF
:101780001B6C03F00103FB60FB68002200211C209E
:1017900002F03BFF1C2002F054FF1AE07B681B683C
:1017A0000F4A934215D10023BB600C4B1B6C0B4AB4
:1017B00043F008031364094B1B6C03F00803BB6080
:1017C000BB6800220021322002F01FFF322002F00D
:1017D00038FF00BF1037BD4680BD00BF0038024053
:1017E000000C004080B58AB000AF786007F11403A8
:1017F00000221A605A609A60DA601A617B681B687E
:10180000194A93422CD100233B61184B5B6C174A59
:1018100043F010035364154B5B6C03F010033B6102
:101820003B690023FB60114B1B6B104A43F0010323
:1018300013630E4B1B6B03F00103FB60FB684FF45B
:10184000C0637B610223BB610023FB6103233B6216
:1018500007237B6207F114031946054802F01AFFBB
:1018600000BF2837BD4680BD00100140003802404F
:101870000000024080B400AFFEE780B400AFFEE796
:1018800080B400AFFEE780B400AFFEE780B400AFE5
:10189000FEE780B400AF00BFBD465DF8047B704733
:1018A00080B400AF00BFBD465DF8047B704780B4D4
:1018B00000AF00BFBD465DF8047B704780B500AF48
:1018C00002F060FD00BF80BD80B500AF064800F0AB
:1018D000E7FB00F017FC054B01221A70012003F012
:1018E00077F800BF80BD00BFAC0300209403002048
:1018F00080B500AF024805F0A4FF00BF80BD00BF67
:10190000C002002080B500AF034B01221A700348CB
:1019100005F097FF00BF80BDE20300200803002010
:1019200080B400AF01231846BD465DF8047B7047C4
:1019300080B582B000AF7860396009F0C1F9034624
:1019400016221A604FF0FF3318460837BD4680BD97
:1019500080B582B000AF78604FF0FF317868FFF754
:10196000E7FFFEE780B586B000AFF860B9607A6047
:1019700000237B610AE0AFF300800146BB685A1C7C
:10198000BA60CAB21A707B6901337B617A697B687D
:101990009A42F0DB7B6818461837BD4680BD80B59B
:1019A00086B000AFF860B9607A6000237B6109E01F
:1019B000BB685A1CBA601B781846AFF300807B697D
:1019C00001337B617A697B689A42F1DB7B68184658
:1019D0001837BD4680BD80B483B000AF78604FF04B
:1019E000FF3318460C37BD465DF8047B704780B462
:1019F00083B000AF786039603B684FF400525A60A2
:101A0000002318460C37BD465DF8047B704780B450
:101A100083B000AF7860012318460C37BD465DF8EF
:101A2000047B704780B485B000AFF860B9607A601D
:101A3000002318461437BD465DF8047B704700004C
:101A400080B586B000AF7860144A154BD31A7B611D
:101A50007B693B61134B1B68002B02D1114B124A6F
:101A60001A60104B1A687B6813443A699A4207D28D
:101A700009F026F903460C221A604FF0FF3309E003
:101A8000084B1B68FB60074B1A687B681344054AC8
:101A90001360FB6818461837BD4680BD0000022061
:101AA00000040000E40300203095002080B400AF63
:101AB000064BD3F88830054A43F47003C2F88830E7
:101AC00000BFBD465DF8047B704700BF00ED00E03D
:101AD000DFF834D00D480E490E4A002302E0D458F6
:101AE000C4500433C4188C42F9D30B4A0B4C002366
:101AF00001E013600432A242FBD3FFF7D7FF09F0E5
:101B0000E5F8FFF74BFA70470000022000000020C4
:101B1000F80100206C020108F80100202C9500203B
:101B2000FEE7000080B584B000AF0346FB710023E0
:101B3000FB7307F10F031A460121012002F09AFA04
:101B40000246144B12B211461970C2F307225A70A2
:101B5000FB79012B05D1FB7B43F02003DBB2FB7348
:101B600004E0FB7B23F02003DBB2FB7307F10F03E0
:101B70001A460121012002F031FA0246054B12B249
:101B800011461970C2F307225A7000BF1037BD46C4
:101B900080BD00BFF003002080B588B000AF786042
:101BA0000B46FB70FB78102B01D91023FB70002330
:101BB000FB771BE0FA7FFB78C3F110039A4206DA49
:101BC000FB7F20333B44002203F8142C0BE0FB7F07
:101BD000C3F10F031A467B681A44FB7F1278203347
:101BE0003B4403F8142CFB7F0133FB77FB7F0F2B67
:101BF000E0D907F10C031A461021802002F0EEF91B
:101C00000246054B12B211461970C2F307225A70F0
:101C100000BF2037BD4680BDF003002080B588B0EE
:101C200000AF78600B46FB70FB78102B01D91023B6
:101C3000FB70FB78C3F1FF2303F57F03E433FB76EE
:101C400007F10802F978FB7E184602F013FA024603
:101C50000F4B12B211461970C2F307225A70FB786B
:101C6000013BFB610CE007F10802FB6913441A78A1
:101C70007B681A707B6801337B60FB69013BFB6109
:101C8000FB69002BEFDA00BF00BF2037BD4680BDE7
:101C9000F003002080B588B000AF78600023FB77A8
:101CA0000DE0FB7F7A681A44FB7FC3F10F031278C3
:101CB00020333B4403F8142CFB7F0133FB77FB7F7D
:101CC0000F2BEED907F10C031A461021702002F0F9
:101CD00085F90246054B12B211461970C2F307226C
:101CE0005A7000BF2037BD4680BD00BFF003002002
:101CF00080B500AF6A2002F009FA0246044B12B226
:101D000011461970C2F307225A7000BF80BD00BF90
:101D1000F003002080B500AF6D2002F0F7F9024615
:101D2000044B12B211461970C2F307225A7000BF59
:101D300080BD00BFF003002080B584B000AF034633
:101D4000FB7107F10F031A460121502002F092F9AE
:101D50000246144B12B211461970C2F307225A7090
:101D6000FB79012B05D1FB7B43F00203DBB2FB7354
:101D700004E0FB7B23F00203DBB2FB7307F10F03EC
:101D80001A460121502002F029F90246054B12B2F1
:101D900011461970C2F307225A7000BF1037BD46B2
:101DA00080BD00BFF003002080B582B000AFFB1DF6
:101DB0001A460121E52002F05DF90246074B12B2F6
:101DC00011461970C2F307225A70FB7903F07F03A2
:101DD000DBB218460837BD4680BD00BFF0030020C7
:101DE00080B584B000AF0346FB7107F10F031A46BC
:101DF00001216E2002F03EF90246124B12B211464A
:101E00001970C2F307225A70FB7B23F07F03DBB209
:101E1000FB73FA7BFB791343DBB2FB7307F10F0310
:101E20001A4601216E2002F0D9F80246054B12B283
:101E300011461970C2F307225A7000BF1037BD4611
:101E400080BD00BFF003002080B584B000AF034622
:101E5000FB7107F10F031A4601216F2002F00AF906
:101E60000246124B12B211461970C2F307225A7081
:101E7000FB7B23F07F03DBB2FB73FA7BFB7913431D
:101E8000DBB2FB7307F10F031A4601216F2002F04A
:101E9000A5F80246054B12B211461970C2F307228B
:101EA0005A7000BF1037BD4680BD00BFF003002050
:101EB00080B584B000AF0346FB7107F10F031A46EB
:101EC00001219E2002F0D6F8FB7B23F00603DBB253
:101ED000FB73FB79012B05D1FB7B43F00203DBB2E3
:101EE000FB7304E0FB7B43F00403DBB2FB7307F1FD
:101EF0000F031A4601219E2002F070F800BF103730
:101F0000BD4680BD80B582B000AF0346FB71FB7952
:101F1000184602F0FBF80246054B12B21146197042
:101F2000C2F307225A7000BF0837BD4680BD00BF0C
:101F3000F003002080B584B000AF78600023FB730D
:101F40007B685A787B689B781343DBB2FB737B68B2
:101F50001B7807F10F020121184602F03FF80246F4
:101F6000054B12B211461970C2F307225A7000BF16
:101F70001037BD4680BD00BFF003002080B584B09F
:101F800000AF78600023FB607B68002B0CD007F16A
:101F9000080304220021184608F0CAFE7B681A468E
:101FA00007F108031868106007F10C031A460421B2
:101FB000902002F013F80246054B12B21146197038
:101FC000C2F307225A7000BF1037BD4680BD00BF64
:101FD000F003002080B586B000AF78600B46FB7040
:101FE00000237B6107F10C031A460421902002F0C4
:101FF00041F80246294B12B211461970C2F307226A
:102000005A700023FB7411E0FB7C18333B4413F837
:102010000C3C1A46FB7CC3F10303DB0002FA03F31A
:102020007A6913447B61FB7C0133FB74FB7C032BDB
:10203000EAD9FB78002B05D17B68DB437A69134032
:102040007B6103E07A697B6813437B610023BB7487
:102050000EE0BB7CC3F10303DB007A69DA40BB7C92
:10206000D2B218333B4403F80C2CBB7C0133BB7455
:10207000BB7C032BEDD907F10C031A4604219020F9
:1020800001F0ACFF0246054B12B211461970C2F3C3
:1020900007225A7000BF1837BD4680BDF0030020EC
:1020A00080B586B000AF78607B687B6107F10C0378
:1020B0001A460421FA2001F0DDFF0246104B12B24D
:1020C00011461970C2F307225A700023FB740EE008
:1020D000FB7CC3F1030318333B4413F80C2C7B69DE
:1020E0001A707B6901337B61FB7C0133FB74FB7CE1
:1020F000032BEDD900BF00BF1837BD4680BD00BF20
:10210000F003002080B582B000AF3B1D1A460421C9
:10211000FA2001F0AFFF0246054B12B211461970CA
:10212000C2F307225A7000BF0837BD4680BD00BF0A
:10213000F003002080B582B000AFFB1D1A460121DC
:10214000E72001F097FF0246074B12B211461970C3
:10215000C2F307225A70FB7903F07F03DBB2184603
:102160000837BD4680BD00BFF00300202DE9B04315
:102170008AB000AF78607B68704A934207D37B686F
:102180006F4A934203D8002387F827301AE07B6810
:102190006C4A934207D97B686B4A934203D8012368
:1021A00087F827300EE07B68684A934207D97B683E
:1021B000674A934203D8022387F8273002E00323BB
:1021C00087F8273000F0F6FF386200F0D3FFF8619F
:1021D00000F0B8FF0346FB763A6A7B681A44FB7E40
:1021E000F96901FB03F313447B6101F0D3FD03465E
:1021F0000133FB7497F82730032B3AD801A252F829
:1022000023F000BF5D220008452200082D220008AF
:10221000152200087B694F4A934203D80020FFF73C
:1022200047FE26E00120FFF743FE22E07B694A4A91
:10223000934203D80020FFF73BFE1AE00120FFF78E
:1022400037FE16E07B69454A934203D80020FFF72A
:102250002FFE0EE00120FFF72BFE0AE07B69404ACB
:10226000934203D80020FFF723FE02E00120FFF78E
:102270001FFE786900F07EFE0346BB747868FEF7A7
:1022800049F904460D46FB7C97F8272035498A5CBE
:1022900002FB03F39B041846FEF74CF9804689467F
:1022A00001F0ECFD03461846FEF734F902460B46F2
:1022B00040464946FEF7D2FA02460B4620462946DA
:1022C000FEF7A2F902460B4610461946FEF774FCCB
:1022D0000346FB60FB685B0DDBB203F01F03DAB261
:1022E000BB7C5B01DBB21343DBB23B72FB685B0B75
:1022F000DBB27B72FB685B09DBB2BB72FB68DBB2F3
:10230000DB00DAB297F827301749CB5C1343DBB216
:10231000FB7207F108031A460421082001F05EFE53
:102320000246124B12B211461970C2F307225A70BC
:1023300000BF2837BD46BDE8B08300BF80565F2E82
:10234000E02F0C397FE40117606A141CBF60D211C2
:10235000E0D7CE14E1F49C09C3E93913058DA21925
:102360000A1A453328FD000824FD0008F003002068
:1023700080B584B000AF0023FB730023BB7301F072
:102380007DFDB86000237B73BB68574A93420FD929
:1023900001F000FD0346002B0AD10123FB7301F07D
:1023A0006BF87860012001F0C5FC7868FFF7DEFE6D
:1023B00001F062F8786025237B707B1C1A460121AE
:1023C000A12001F00BFE0120FFF7B6FC01F0D4FDC7
:1023D000464B1B78C3F34603DBB2402B0DD10123E0
:1023E000BB736220FFF78EFD01F0C6FD3F4B1B78EB
:1023F000C3F34603DBB2032BF6D16620FFF782FD61
:1024000000237B7301F0B8FD384B1B78C3F3460300
:10241000DBB2132B06D17B7B5A1C7A73052B01D1BF
:1024200001235DE0314B1B78C3F34603DBB20F2B76
:10243000E8D1FFF7B9FC0346FB706220FFF762FDAD
:1024400001F09AFD294B1B78C3F34603DBB2032B43
:10245000F6D16520FFF756FD00237B7301F08CFD5C
:10246000224B1B78C3F34603DBB2132B06D17B7BD5
:102470005A1C7A73052B01D1012331E01B4B1B78C9
:10248000C3F34603DBB20F2BE8D1FFF78DFC034605
:10249000BB706220FFF736FD01F06EFD134B1B7819
:1024A000C3F34603DBB2032BF6D1BB7B012B02D176
:1024B0006320FFF727FD0020FFF73EFCFB7B002B8E
:1024C00005D0002001F036FC7868FFF74FFEFB785E
:1024D0001846FFF785FCBB781846FFF7B5FC0023CC
:1024E00018461037BD4680BD80C3C901F0030020E7
:1024F00080B582B000AF164B1B78DBB2002B23D027
:10250000144B1B68144A934208D9124B1B68134A98
:10251000934203D8C02001F083FB02E0002001F0C9
:102520007FFB1123FB71FB1D1A460121A92001F03D
:1025300055FD2023FB71FB1D1A460121A52001F04A
:102540004DFD034B00221A7000BF0837BD4680BD09
:102550000C000020E80300207FD1F00880A1031CBC
:1025600080B582B000AF0B4B1B78DBB2012B0DD0D6
:102570009823FB71FB1D1A460121A52001F02EFDB9
:10258000002001F04DFB034B01221A7000BF0837F9
:10259000BD4680BD0C00002080B483B000AF7860E1
:1025A000054B02221A70054A7B68136000BF0C3786
:1025B000BD465DF8047B70470C000020E803002056
:1025C00080B582B000AFCA23FB71FB1D1A46012102
:1025D000B22001F003FD0423FB71FB1D1A4601210B
:1025E000A82001F0FBFCFB1D1A460121A82001F0E8
:1025F00041FD0023FB71FB1D1A460121A82001F0BB
:10260000EDFC00BF0837BD4680BD000080B584B03A
:1026100000AF786007F108031A460121512001F04C
:1026200029FD0246634B12B211461970C2F307220C
:102630005A703B7A23F02003DBB23B723B7A43F0C3
:102640000103DBB23B7207F108031A460121512056
:1026500001F0C4FC0246574B12B211461970C2F386
:1026600007225A7007F108031A4601214F2001F092
:1026700001FD02464F4B12B211461970C2F30722F8
:102680005A703B7A23F03003DBB23B7207F1080348
:102690001A4601214F2001F0A1FC0246454B12B21F
:1026A00011461970C2F307225A707B681B7B012BFD
:1026B00002D108233B7201E000233B723A7A7B6827
:1026C000DB7A1343DBB23B727B685B7A002B02D16F
:1026D0007B6801225A727B685B7A013BDBB27B72BA
:1026E0007B681A787B685B781343DAB27B681B7A65
:1026F0001343DBB2BB727B689B7AFB727B689B7B6C
:10270000012B04D1FB7A43F01003DBB2FB727B6830
:102710005B7B012B04D1FB7A43F00103DBB2FB723C
:1027200007F108031A460421302001F057FC00236A
:10273000FB731DE0FA7B7B685B785B08DBB2C3F15F
:1027400003039A4206DAFB7B10333B44002203F872
:10275000082C0AE07B685A68FB7BDB00DA40FB7BD5
:10276000D2B210333B4403F8082CFB7B0133FB73DC
:10277000FB7B032BDED97B689B7A002B03D10020E7
:1027800000F0FCF802E0012000F0F8F807F108037F
:102790001A460421362001F021FC0246054B12B2F4
:1027A00011461970C2F307225A7000BF1037BD4698
:1027B00080BD00BFF003002080B584B000AF78601A
:1027C00007F10C031A4601214F2001F053FC024689
:1027D0002F4B12B211461970C2F307225A707B6850
:1027E0001B78012B05D13B7B43F00803DBB23B7325
:1027F00004E03B7B23F00803DBB23B737B689B78F0
:10280000012B05D13B7B43F00403DBB23B7304E0B7
:102810003B7B23F00403DBB23B737B681B79012B0A
:1028200005D13B7B43F00203DBB23B7304E03B7B0F
:1028300023F00203DBB23B7307F10C031A460121BC
:102840004F2001F0CBFB0246114B12B2114619701A
:10285000C2F307225A707B685B793B737B68DB7835
:102860007B737B685B78BB7307F10C031A4603210B
:102870004C2001F0B3FB0246054B12B21146197011
:10288000C2F307225A7000BF1037BD4680BD00BF9B
:10289000F003002080B582B000AFFB1D1A46012175
:1028A000302001F0E7FB0246094B12B211461970C5
:1028B000C2F307225A70FB7903F01803002B01D0F2
:1028C000012300E0002318460837BD4680BD00BF45
:1028D000F003002080B584B000AF0346FB800023E6
:1028E000FB81FFF7D7FF0346002B01D00123FB81BB
:1028F00000F028F803469AB2FB891344FB81FB8859
:10290000DAB2FB89DBB21344DBB27B73FA88FB8952
:1029100013441B12DBB23B7307F10C031A4602216E
:10292000342001F05BFB0246054B12B211461970D0
:10293000C2F307225A7000BF1037BD4680BD00BFEA
:10294000F003002080B582B000AFFB1D1A460121C4
:10295000302001F08FFB0246074B12B2114619706E
:10296000C2F307225A70FB7903F00703DBB2184663
:102970000837BD4680BD00BFF003002080B584B09D
:1029800000AF0346FB7107F10F031A4601214F20E8
:1029900001F070FB0246144B12B211461970C2F3DB
:1029A00007225A70FB79012B05D1FB7B43F0010311
:1029B000DBB2FB7304E0FB7B23F00103DBB2FB73B0
:1029C00007F10F031A4601214F2001F007FB0246D1
:1029D000054B12B211461970C2F307225A7000BF9C
:1029E0001037BD4680BD00BFF003002080B582B027
:1029F00000AF0346FB71FB1D1A4601214B2001F07D
:102A0000EDFA0246054B12B211461970C2F30722C5
:102A10005A7000BF0837BD4680BD00BFF0030020DC
:102A200080B584B000AF0346FB7107F10F031A466F
:102A300001213A2001F01EFB0246144B12B211464E
:102A40001970C2F307225A70FB79012B05D1FB7B69
:102A500043F00203DBB2FB7304E0FB7B23F00203D1
:102A6000DBB2FB7307F10F031A4601213A2001F094
:102A7000B5FA0246054B12B211461970C2F307228D
:102A80005A7000BF1037BD4680BD00BFF003002064
:102A900080B584B000AF0346FB7107F10F031A46FF
:102AA00001213A2001F0E6FA0246124B12B2114619
:102AB0001970C2F307225A70FB7B03F03F03DBB2AD
:102AC000FB73FA7BFB791343DBB2FB7307F10F0354
:102AD0001A4601213A2001F081FA0246054B12B252
:102AE00011461970C2F307225A7000BF1037BD4655
:102AF00080BD00BFF003002080B584B000AF7860D7
:102B00007B688233DBB25B00DBB2FB7307F10F0340
:102B10001A460121222001F061FA0246054B12B249
:102B200011461970C2F307225A7000BF1037BD4614
:102B300080BD00BFF003002080B58CB000AF78608E
:102B4000A0237B7407F111031A4601219F2001F095
:102B500045FA7B68B3F9003007EE903AB8EEE77AB1
:102B60007B685B6807EE903AF8EE677A27EE277A83
:102B7000DFEDAE6AC7EE267AFDEEE77A17EE903A01
:102B8000FB62632001F0C2FA0023BB7304E0BB7B4D
:102B9000DBB20133DBB2BB73BB7BDBB2FF2BF6D105
:102BA00001F0EAF9A24B1B78C3F34603DBB2402BDA
:102BB000EAD1A04B1B68A04A934203D8002001F041
:102BC0000BF902E0012001F007F9622001F09EFA02
:102BD00000237B7304E07B7BDBB20133DBB27B73CE
:102BE0007B7BDBB2FF2BF6D101F0C6F9904B1B7853
:102BF000C3F34603DBB2032BEAD1FB6A07EE903A3C
:102C0000F8EEE77A9FED8D7A67EE876A894B1B684D
:102C100007EE903AB8EE677AC6EE877AFDEEE77A6D
:102C200017EE903A7B857B8D1B0A9BB2DBB203F0DB
:102C30000F03DBB2BB777B8DDBB2FB777B689B68D6
:102C40005A027C4B1B689B09B2FBF3F3DBB20133E6
:102C5000DBB23B777B685B681846FFF79DFC07F1AA
:102C600010031A460121A32001F004FA3B7C23F053
:102C70000203DBB23B7407F110031A460121A320C3
:102C800001F0ACF97B681B6907F1160207F1170127
:102C9000184600F03DFCFB7D3B767B685A7BBB7D94
:102CA0001343DBB27B7607F110031A4601211C2087
:102CB00001F0E0F97B685B6907F1140207F1150187
:102CC000184600F0BDFD3B7D1B015AB23B7C5BB258
:102CD00003F008035BB213435AB27B7D5BB213432C
:102CE0005BB2DBB2BB767B689B6907F1120207F12E
:102CF0001301184600F0BEFCFB7C1B015AB2BB7CE2
:102D00005BB213435BB2DBB2FB764A4B1B681B0B17
:102D100007EE903AB8EE677ADFED496AC6EE877A39
:102D20009FED487A77EEC77AC7ED097AD7ED097A31
:102D3000FCEEE77AF8EE677A97ED097A77EE677A34
:102D4000B6EE007AF4EEC77AF1EE10FA09DDD7EDAF
:102D5000097AFCEEE77AC7ED007A3B780133DBB203
:102D600006E0D7ED097AFCEEE77AC7ED007A3B780A
:102D7000FB73304B1B68304A934202D8FB7B7B7756
:102D800033E02C4B1B685B0B07EE903AB8EE677A8A
:102D9000DFED2B6AC6EE877A9FED2A7A77EEC77A47
:102DA000C7ED097AD7ED097AFCEEE77AF8EE677A93
:102DB00097ED097A77EE677AB6EE007AF4EEC77A85
:102DC000F1EE10FA09DDD7ED097AFCEEE77AC7EDEE
:102DD000007A3B780133DBB206E0D7ED097AFCEEEE
:102DE000E77AC7ED007A3B787B7707F10F031A4645
:102DF0000121072001F0F2F802460D4B12B21146F4
:102E00001970C2F307225A700A4B1B680E4A93428C
:102E10001ED9084B1B680D4A93428CBF0123002327
:102E2000DBB2184600F06CF81DE000BF00247449C6
:102E3000F0030020EC0300207FC3C901000080489C
:102E400020D5AF490000804280C3C9017FF0FA025B
:102E5000284B1B68284A93428CBF01230023DBB216
:102E6000184600F04DF87B680C331A4601216C209F
:102E700001F0B4F807F11C031A4604210C2001F0FC
:102E8000ADF807F118031A4604211A2001F0A6F83C
:102E900002461A4B12B211461970C2F307225A7039
:102EA000012000F015FF80233B77E3237B7707F1B8
:102EB0001C031A460221992001F090F802460F4B9C
:102EC00012B211461970C2F307225A7022233B77BF
:102ED00007F11C031A460121BC2001F07FF87B6832
:102EE0005B68184600F0AAF9034618463037BD461D
:102EF00080BD00BFEC0300203F787D01F00300207F
:102F000080B584B000AF0346FB710023FB7307F16B
:102F10000F031A460121012001F0ACF80246144BC0
:102F200012B211461970C2F307225A70FB79012BB5
:102F300005D1FB7B43F04003DBB2FB7304E0FB7B7A
:102F400023F04003DBB2FB7307F10F031A460121A4
:102F5000012001F043F80246054B12B211461970E8
:102F6000C2F307225A7000BF1037BD4680BD00BFB4
:102F7000F003002080B485B000AF78600023FB73BD
:102F80000023BB600023BB737B683A4A934206D39D
:102F90007B68394A934202D80623BB731FE07B68E3
:102FA000364A934206D97B68354A934202D80C23AD
:102FB000BB7314E07B68334A934206D97B68324A7C
:102FC000934202D81023BB7309E07B682F4A9342D7
:102FD00005D97B682E4A934201D82023BB737B68B6
:102FE0002C4AA2FB03239B09BA7B02FB03F3BB60C1
:102FF00041F21F631A464FF47A7302FB03F3BA6877
:103000009A4202D30F23FB7323E00023FB7305E0F6
:1030100097F90F30DBB20133DBB2FB7397F90F3056
:103020000E2B0CDC97F90F301B4A32F813301A467E
:103030004FF47A7302FB03F3BA689A42E8D897F91F
:103040000F30002B05D097F90F30DBB2013BDBB21C
:10305000FB7397F90F305A4203F0070302F007029F
:1030600058BF53425BB2DBB218461437BD465DF819
:10307000047B704780565F2EE02F0C397FE40117E8
:10308000606A141CBF60D211E0D7CE143F8FE108F4
:1030900060D06F0AD34D6210E8FD000880B582B0A1
:1030A00000AF3B1D1A460421082000F0E3FF024652
:1030B0000C4B12B211461970C2F307225A703B79B9
:1030C0005B0503F078727B795B031A44BB795B0183
:1030D0001344FA79D208D2B2134418460837BD46D1
:1030E00080BD00BFF003002080B582B000AFFB1DA3
:1030F0001A4601210B2000F0BDFF0246104B12B210
:1031000011461970C2F307225A70FB7903F00703C6
:10311000012B01D100230EE0FB7903F00703032B01
:1031200001D1012307E0FB7903F00703042B01D150
:10313000022300E0032318460837BD4680BD00BFC8
:10314000F003002080B582B000AFFB1D1A460121BC
:103150006C2000F08FFF0246054B12B21146197029
:10316000C2F307225A70FB7918460837BD4680BD66
:10317000F003002080B582B000AFFB1D1A4601218C
:103180000C2000F077FF0246084B12B2114619706E
:10319000C2F307225A70FB791A46054B1B6802FBE3
:1031A00003F3DB0B18460837BD4680BDF003002053
:1031B000EC03002080B582B000AF3B1D1A4602210F
:1031C0000E2000F057FF02461A4B12B2114619703A
:1031D000C2F307225A703B799BB21B029AB27B79E9
:1031E0009BB213449BB27B807B8803F40063002B6B
:1031F00007D07B886FEA03536FEA13539BB27B803F
:1032000004E07B88C3F30B039BB27B80BB1C1B8851
:10321000FB80B7F90630084A126802FB03F3002B63
:1032200003DA03F57F3303F2FF339B1418460837A4
:10323000BD4680BDF0030020EC0300202DE9B04323
:103240008AB000AF7860002387F827307B68794A1E
:10325000934207D37B68784A934203D8002387F8C8
:10326000273022E07B68754A934207D97B68744A0D
:10327000934203D8012387F8273016E07B68714A10
:10328000934207D97B68704A934203D8022387F898
:1032900027300AE07B686D4A934206D97B686C4A06
:1032A000934202D8032387F82730FFF783FF386261
:1032B000FFF760FFF861FFF745FF0346FB763A6AC8
:1032C0007B681A44FB7EF96901FB03F313447B61BD
:1032D00000F060FD03460133FB7497F82730032BA1
:1032E00039D801A252F823F04133000829330008ED
:1032F00011330008F93200087B69564A934203D81B
:103300000020FEF7D5FD26E00120FEF7D1FD22E0EA
:103310007B69514A934203D80020FEF7C9FD1AE0A9
:103320000120FEF7C5FD16E07B694C4A934203D8A5
:103330000020FEF7BDFD0EE00120FEF7B9FD0AE01A
:103340007B69474A934203D80020FEF7B1FD02E0B3
:103350000120FEF7ADFD7869FFF70CFE0346BB7454
:1033600097F827303F4AD35C1A467B6802FB03F389
:103370001846FDF7CFF804460D46FB7C9B04184623
:10338000FDF7D8F880468946374B1B681846FDF78D
:10339000C1F802460B4640464946FDF75FFA024631
:1033A0000B4620462946FDF72FF902460B461046EC
:1033B0001946FDF701FC0346FB60FB685B0DDBB2C1
:1033C00003F01F03DAB2BB7C5B01DBB21343DBB259
:1033D0003B72FB685B0BDBB27B72FB685B09DBB2A9
:1033E000BB72FB68DBB2DB00DAB297F827301F490B
:1033F000CB5C1343DBB2FB7207F108031A460421CE
:10340000082000F0EBFD0246194B12B2114619706C
:10341000C2F307225A70174B1B78012B03D1FEF71A
:10342000A7FF034600E0002318462837BD46BDE845
:10343000B08300BF80565F2EE02F0C397FE4011768
:10344000606A141CBF60D211E0D7CE143F8FE10830
:1034500060D06F0AE1F49C09C3E93913058DA21904
:103460000A1A45332CFD0008EC03002030FD00084B
:10347000F00300200D0000202DE9B04382B000AF22
:10348000FFF70CFE7860FFF72FFE0346FB7000F09D
:1034900081FC03460133BB707868FDF73BF80446B6
:1034A0000D46194B1B681846FDF734F880468946CF
:1034B000BB78FA7815498A5C02FB03F39B04184633
:1034C000FDF738F802460B4640464946FDF7C6F977
:1034D00002460B4620462946FDF796F802460B4663
:1034E00043EC172BB0EE470AF0EE670A0AF046FBF2
:1034F00053EC102B10461946FDF75EFB03461846A9
:103500000837BD46BDE8B083EC0300202CFD000861
:1035100080B588B000AFF860B9607A6000233B7670
:103520000F23FB770023BB7600F086FC0346BB76B7
:1035300015E04F4B1A6897F91F30C3F11401BB7E99
:103540000B4422FA03F3FA689A4202D301233B7632
:1035500005E097F91F30DBB2013BDBB2FB773B7E26
:10356000DBB2002B03D197F91F30002BE1DA97F97A
:103570001F30002B01DA0023FB77FA7F7B681A707B
:1035800097F91F30C3F11703FA689A40384B19684E
:10359000BB7E053321FA03F3B2FBF3F37B76002302
:1035A000BB7731E07A7EBB7F1344012B21D0FB68CF
:1035B0009AB27B7E03F58071BB7F0B44013B1846BA
:1035C0002B4B1968BB7E053321FA03F303FB00F193
:1035D00097F91F30C3F1170321FA03F39BB2D31AF3
:1035E0009AB2BB7F12B25B0020333B4423F8102C0D
:1035F00007E0BB7F5B0020333B4447F6FF7223F8B4
:10360000102CBB7F0133BB77BB7F022BCAD94FF68F
:10361000FF73BB830023FB7621E0FB7E5B0020333E
:103620003B4433F9103C002BB8BF5B429BB2BA8BD2
:103630009A4211D9FB7E5B0020333B4433F9103CA6
:10364000002BB8BF5B42BB837A7EFB7E1344DBB2A8
:10365000013BDAB2BB681A70FB7E0133FB76FB7E5E
:10366000022BDAD900BF00BF2037BD4680BD00BFA6
:10367000EC03002080B58AB000AFF860B9607A60D2
:10368000012387F8263000F0D7FB0346002B03D038
:10369000022387F8263002E0012387F82630634BA7
:1036A0001A6897F82630B2FBF3F3614AA2FB0323B2
:1036B0005B09FB61002387F8273006E097F9273084
:1036C000DBB20133DBB287F8273097F92730592B6B
:1036D0000FDC97F92730574A32F813301A46FB6946
:1036E00002FB03F3544AA2FB0323DB0AFA689A4263
:1036F000E4D397F92730002B77D097F82730FB7663
:10370000002387F825303AE097F91B2097F82530F9
:103710001344002B06DC97F91B2097F8253013443F
:103720005A2B1EDCFB689AB297F91B1097F82530CC
:103730000B44013B3F4931F813301946FB6901FB4B
:1037400003F33D49A1FB0313DB0A9BB2D31A9AB2E0
:1037500097F8253012B25B0028333B4423F8142C31
:1037600008E097F825305B0028333B4447F6FF72AA
:1037700023F8142C97F82530013387F8253097F873
:103780002530022BC0D94FF6FF737B84002387F8C6
:10379000213026E097F821305B0028333B4433F991
:1037A000143C002BB8BF5B429BB27A8C9A4213D96F
:1037B00097F821305B0028333B4433F9143C002B4D
:1037C000B8BF5B427B84FA7E97F821301344DBB2AA
:1037D000013BDBB287F8273097F82130013387F8B7
:1037E000213097F82130022BD4D997F92730134A8A
:1037F00082FB03125210DB17D31A5BB2DAB27B687A
:103800001A7097F927200D4B83FB02135910D31719
:10381000C91A0B46DB000B44D31A5BB2DAB2BB68A1
:103820001A7000BF2837BD4680BD00BFEC030020E2
:103830001F85EB5134FD0008FD33A6C9398EE338EE
:10384000B0B58AB000AFF860B9607A600023FB6160
:10385000534B1B6807EE903AB8EE677ADFED516A7A
:10386000C7EE267AC7ED067A002387F8273028E0CE
:1038700097F82730012202FA03F31846FCF75AFEA4
:103880004FF00002484BFCF7BFFE02460B461046C5
:103890001946FDF791F907EE900AB8EE677AD7ED71
:1038A000067A67EE277AFCEEE77A17EE903A7B61AC
:1038B000FA687B699A4209D397F82730013387F871
:1038C000273097F82730092BD2D900E000BF7B685A
:1038D00097F827201A70002387F8273043E0FB6908
:1038E0003B6297F827301846FCF724FE4FF00002A1
:1038F0002E4BFCF7D3FC02460B46104619464FF000
:1039000000024FF08043FCF7A9FF02460B46144625
:103910001D467B681B781A46012393401846FCF726
:1039200009FE02460B4620462946FCF76DFE02467C
:103930000B4610461946FDF73FF907EE900AB8EE20
:10394000677AD7ED067A67EE277AFCEEE77A17EE0C
:10395000903AFB61FA68FB699A4209D397F82730DD
:10396000013387F8273097F82730072BB7D900E0C5
:1039700000BFBB6897F827201A70FA683B6AD21A12
:10398000F969FB68CB1A9A4205D2BB681B78013BE8
:10399000DAB2BB681A7000BF2837BD46B0BD00BFA1
:1039A000EC0300200000804800001E400000204082
:1039B00080B487B000AFF86087ED020A0023FB7582
:1039C0000023BB75FB68744A93420CD3FB68734AAF
:1039D000934208D80023FB75FB68714A934222D8B2
:1039E0000123FB751FE0FB686E4A934206D9FB6812
:1039F0006D4A934202D80223FB7514E0FB686B4AC0
:103A0000934206D9FB686A4A934202D80323FB75A6
:103A100009E0FB68674A934205D9FB68664A93420E
:103A200001D80423FB750123BB75D7ED027AF5EEAF
:103A3000C07AF1EE10FA2FDDFA7D604913465B0083
:103A40001344DB000B440833D3ED007AF2EE0A6A2C
:103A500086EEA77AFA7D594913465B001344DB00D2
:103A60000B440C3393ED006AFA7D544913465B0016
:103A70001344DB000B440833D3ED006AC6EE267A0C
:103A800077EE677A97ED027AB4EEE77AF1EE10FA04
:103A900002DD0023BB7535E0D7ED027AF5EEC07A82
:103AA000F1EE10FA2ED8FA7D444913465B00134418
:103AB000DB000B440833D3ED007ADFED416A86EE7C
:103AC000A77AFA7D3D4913465B001344DB000B44A3
:103AD0000C3393ED006AFA7D384913465B001344BA
:103AE000DB000B440833D3ED006AC6EE267A77EE8E
:103AF000677A97ED027AB4EEE77AF1EE10FA01D523
:103B00000223BB75FA7DBB7D59002C4813465B0030
:103B100013445B000B449B00034493ED007AD7ED04
:103B2000027A27EE277AFA7DBB7D5B00591C234879
:103B300013465B0013445B000B449B000344D3ED2E
:103B4000007A77EE277AC7ED047AD7ED047AB7EEDC
:103B5000007AF4EEC77AF1EE10FA03D54FF07E53F7
:103B60003B610AE0D7ED047A9FED167AF4EEC77A4E
:103B7000F1EE10FA01DD144B3B61D7ED047AFCEE57
:103B8000E77AC7ED017A3B79DBB218461C37BD46B0
:103B90005DF8047B704700BF80565F2EE02F0C3924
:103BA000FFE8A4357FE40117606A141CBF60D211DE
:103BB000E0D7CE143F8FE10860D06F0A08FE0008FE
:103BC000000020420000B4420000B44280B584B03E
:103BD00000AF034687ED000AFB71FFF74DFC03467B
:103BE00097ED000A1846FFF7E3FE0346BB73FB7927
:103BF000C3F11703FB7307F10E02FB7B012118468B
:103C000000F0ECF90246054B12B211461970C2F3EE
:103C100007225A7000BF1037BD4680BDF003002058
:103C200080B584B000AF0346FB7107F10F031A465D
:103C30000121182000F01EFAFB7B03F03F03DBB2EA
:103C4000FB73FA7BFB791343DBB2FB7307F10F03C2
:103C50001A460121182000F0C1F90246054B12B2A4
:103C600011461970C2F307225A7000BF1037BD46C3
:103C700080BD00BFF003002080B584B000AF0346D4
:103C8000FB7107F10F031A460121182000F0F2F929
:103C9000FB7B23F00703DBB2FB73FA7BFB79134357
:103CA000DBB2FB7307F10F031A460121182000F065
:103CB00095F90246054B12B211461970C2F307225C
:103CC0005A7000BF1037BD4680BD00BFF003002012
:103CD00080B584B000AF0346FB710023FB7307F18E
:103CE0000F031A4601211E2000F0C4F9FB79012BB5
:103CF00005D1FB7B63F07F03DBB2FB7304E0FB7B4E
:103D000003F07F03DBB2FB7307F10F031A460121B7
:103D10001E2000F063F90246054B12B211461970DD
:103D2000C2F307225A7000BF1037BD4680BD00BFE6
:103D3000F003002080B584B000AF0346FB7107F1AB
:103D40000F031A4601219E2000F094F9FB79012B04
:103D500005D1FB7B63F07F03DBB2FB7304E0FB7BED
:103D600003F07F03DBB2FB7307F10F031A46012157
:103D70009E2000F033F90246054B12B2114619702D
:103D8000C2F307225A7000BF1037BD4680BD00BF86
:103D9000F003002080B582B000AFFB1D1A46012160
:103DA0009E2000F067F902460A4B12B211461970C4
:103DB000C2F307225A70FB79DB09DBB203F001037F
:103DC000002B01D0012300E0002318460837BD4630
:103DD00080BD00BFF003002080B584B000AF034673
:103DE000FB7107F10F031A460121B42000F042F9DC
:103DF000FB79012B05D1FB7B23F00803DBB2FB73BE
:103E000004E0FB7B43F00803DBB2FB7307F10F0315
:103E10001A460121B42000F0E1F80246054B12B227
:103E200011461970C2F307225A7000BF1037BD4601
:103E300080BD00BFF003002080B582B000AFFB1D45
:103E40001A460121B42000F015F902460A4B12B2BD
:103E500011461970C2F307225A70FB79DB08DBB2F6
:103E600003F00103002B01D0002300E001231846DA
:103E70000837BD4680BD00BFF003002080B400AF0E
:103E8000034B1B681846BD465DF8047B704700BFB6
:103E9000EC03002080B483B000AF7860044A7B68F4
:103EA000136000BF0C37BD465DF8047B704700BF50
:103EB000EC03002080B582B000AF0346FB71FB1D10
:103EC0001A460121542000F089F80246054B12B22F
:103ED00011461970C2F307225A7000BF0837BD4659
:103EE00080BD00BFF003002080B584B000AF034662
:103EF000FB7107F10C031A4602214F2000F0BAF8BB
:103F000002461C4B12B211461970C2F307225A70B6
:103F10003B7B23F04003DBB23B733B7B5AB2FB7924
:103F2000DB005BB203F040035BB213435BB2DBB276
:103F30003B737B7B03F01F03DBB27B737B7B5AB24B
:103F4000FB795B015BB213435BB2DBB27B7307F1BE
:103F50000C031A4602214F2000F040F80246054BA0
:103F600012B211461970C2F307225A7000BF1037FF
:103F7000BD4680BDF003002080B582B000AF3B1D80
:103F80001A460221C02000F075F80346094A138042
:103F9000084B1A787B799A42F1D1074B1B7803F0D2
:103FA0000F033A799342EAD100BF00BF0837BD46FC
:103FB00080BD00BFF0030020F103002080B500AFFA
:103FC000054B1B6893F85130DBB2002B01D1FDF794
:103FD00007FB00BF80BD00BF1000002080B588B087
:103FE00002AF03463A60FB710B46BB7100233B7482
:103FF000FB797B74062000F032FB002210211B4865
:1040000000F0CCFC1A4B186807F10C0207F1100104
:104010004FF47A730093022303F060F8144B18688E
:10402000BB799AB24FF47A73396802F00AFE012222
:1040300010210E4800F0B2FC062000F002FB07F150
:10404000080301333A7B1A7007F108037A7B1A7070
:104050003B89BB8200233A7D62F307037A7D62F3DA
:104060000F2318461837BD4680BD00BF0000024030
:104070001000002080B588B002AF03463A60FB71A3
:104080000B46BB7101233B74FB797B74062000F067
:10409000E6FA002210211B4800F080FC1A4B186839
:1040A00007F10C0207F110014FF47A730093022319
:1040B00003F014F8144B1868BB799AB24FF47A7372
:1040C000396802F0FAFE012210210E4800F066FC69
:1040D000062000F0B6FA07F1080301333A7B1A70A4
:1040E00007F108037A7B1A703B89BB8200233A7D73
:1040F00062F307037A7D62F30F2318461837BD4633
:1041000080BD00BF000002401000002080B588B0D4
:1041100002AF0346FB7180233B74FB797B7406205E
:1041200000F09DFA00221021164800F037FC164BD3
:10413000186807F10C0207F110014FF47A7300932D
:10414000022302F0CBFF012210210E4800F026FCD2
:10415000062000F076FA07F1080301333A7B1A7063
:1041600007F108037A7B1A703B89BB8200233A7DF2
:1041700062F307037A7D62F30F2318461837BD46B2
:1041800080BD00BF000002401000002080B588B054
:1041900002AF03463960FB714FF47F433B82062038
:1041A00000F05DFA002210211A4800F0F7FB1A4BCC
:1041B000186807F10C0207F110014FF47A730093AD
:1041C000022302F08BFF144B1868FB799AB24FF46C
:1041D0007A73396802F035FD012210210D4800F094
:1041E000DDFB062000F02DFA07F1080301333A7BCE
:1041F0001A7007F108037A7B1A703B89BB8200238F
:104200003A7D62F307037A7D62F30F23184618376D
:10421000BD4680BD000002401000002080B588B07F
:1042200002AF03463960FB714FF601733B820620F3
:1042300000F015FA002210211A4800F0AFFB1A4BCB
:10424000186807F10C0207F110014FF47A7300931C
:10425000022302F043FF144B1868FB799AB24FF423
:104260007A73396802F029FE012210210D4800F00E
:1042700095FB062000F0E5F907F1080301333A7BCE
:104280001A7007F108037A7B1A703B89BB820023FE
:104290003A7D62F307037A7D62F30F2318461837DD
:1042A000BD4680BD000002401000002080B500AF78
:1042B00001220221024800F071FB00BF80BD00BF57
:1042C0000004024080B500AF00220221034800F044
:1042D00065FB012000F076F800BF80BD00040240BD
:1042E00080B500AF0E4B1B680D4A43F4007313609A
:1042F0000B4B1B680A4A43F480631360084B1B682E
:10430000074A43F480731360032000F073F90F2011
:1043100000F008F8FDF76AF90023184680BD00BFD9
:10432000003C024080B582B000AF7860124B1A6842
:10433000124B1B7819464FF47A73B3FBF1F3B2FBBF
:10434000F3F3184600F099F90346002B01D001233E
:104350000EE07B680F2B0AD8002279684FF0FF30FF
:1043600000F053F9064A7B681360002300E0012344
:1043700018460837BD4680BD080000201800002000
:104380001400002080B400AF064B1B781A46064B81
:104390001B681344044A136000BFBD465DF8047BEC
:1043A000704700BF18000020F403002080B400AF65
:1043B000034B1B681846BD465DF8047B704700BF81
:1043C000F403002080B584B000AF7860FFF7EEFF03
:1043D000B8607B68FB60FB68B3F1FF3F05D00A4B18
:1043E0001B781A46FB681344FB6000BFFFF7DEFF33
:1043F0000246BB68D31AFA689A42F7D800BF00BFDA
:104400001037BD4680BD00BF1800002080B485B0C5
:1044100000AF78607B6803F00703FB600C4BDB6840
:10442000BB60BA684FF6FF031340BB60FB681A021B
:10443000BB68134343F0BF6343F40033BB60044ADB
:10444000BB68D36000BF1437BD465DF8047B70477E
:1044500000ED00E080B400AF044BDB681B0A03F002
:1044600007031846BD465DF8047B704700ED00E089
:1044700080B483B000AF0346FB7197F90730002B7F
:104480000BDBFB7903F01F02074997F907305B0943
:10449000012000FA02F241F8232000BF0C37BD468C
:1044A0005DF8047B704700BF00E100E080B483B09A
:1044B00000AF0346FB7197F90730002B12DBFB7945
:1044C00003F01F020A4997F907305B09012000FA3F
:1044D00002F2203341F82320BFF34F8F00BFBFF318
:1044E0006F8F00BF00BF0C37BD465DF8047B70477F
:1044F00000E100E080B483B000AF03463960FB7197
:1045000097F90730002B0ADB3B68DAB20C4997F9C0
:1045100007301201D2B20B4483F800230AE03B6853
:10452000DAB20849FB7903F00F03043B1201D2B25F
:104530000B441A7600BF0C37BD465DF8047B70470C
:1045400000E100E000ED00E080B489B000AFF86069
:10455000B9607A60FB6803F00703FB61FB69C3F194
:104560000703042B28BF0423BB61FB690433062B1C
:1045700002D9FB69033B00E000237B614FF0FF326F
:10458000BB6902FA03F3DA43BB681A407B699A40BD
:104590004FF0FF317B6901FA03F3D9437B680B408D
:1045A000134318462437BD465DF8047B704700006E
:1045B00080B582B000AF78607B68013BB3F1807F4B
:1045C00001D301230FE00A4A7B68013B53600F21AE
:1045D0004FF0FF30FFF78EFF054B00229A60044B2F
:1045E00007221A60002318460837BD4680BD00BF69
:1045F00010E000E080B582B000AF78607868FFF727
:1046000005FF00BF0837BD4680BD80B586B000AF4E
:104610000346B9607A60FB7300237B61FFF71AFFE2
:1046200078617A68B9687869FFF78EFF024697F972
:104630000F3011461846FFF75DFF00BF1837BD4623
:1046400080BD80B582B000AF0346FB7197F907309B
:104650001846FFF70DFF00BF0837BD4680BD80B587
:1046600082B000AF0346FB7197F907301846FFF799
:104670001DFF00BF0837BD4680BD80B582B000AFCA
:1046800078607868FFF794FF034618460837BD4600
:1046900080BD000080B489B000AF7860396000232D
:1046A0007B6100233B610023BB610023FB6159E177
:1046B0000122FB6902FA03F37B613B681B687A699C
:1046C00013403B613A697B699A4240F048813B68FC
:1046D0005B6803F00303012B05D03B685B6803F0C4
:1046E0000303022B30D17B689B68BB61FB695B00D5
:1046F000032202FA03F3DB43BA691340BB613B6850
:10470000DA68FB695B0002FA03F3BA691343BB6121
:104710007B68BA699A607B685B68BB610122FB6950
:1047200002FA03F3DB43BA691340BB613B685B6881
:104730001B0903F00102FB6902FA03F3BA69134390
:10474000BB617B68BA695A603B685B6803F003032E
:10475000032B17D07B68DB68BB61FB695B0003221E
:1047600002FA03F3DB43BA691340BB613B689A6802
:10477000FB695B0002FA03F3BA691343BB617B6810
:10478000BA69DA603B685B6803F00303022B23D14C
:10479000FB69DA087B68083253F82230BB61FB6999
:1047A00003F007039B000F2202FA03F3DB43BA690D
:1047B0001340BB613B681A69FB6903F007039B0068
:1047C00002FA03F3BA691343BB61FB69DA087B6839
:1047D0000832B96943F822107B681B68BB61FB692A
:1047E0005B00032202FA03F3DB43BA691340BB61A7
:1047F0003B685B6803F00302FB695B0002FA03F3AA
:10480000BA691343BB617B68BA691A603B685B682D
:1048100003F44033002B00F0A2800023FB60574BD1
:104820005B6C564A43F480435364544B5B6C03F413
:104830008043FB60FB68524AFB699B08023352F8D5
:104840002330BB61FB6903F003039B000F2202FAD4
:1048500003F3DB43BA691340BB617B68494A934267
:1048600019D07B68484A934213D07B68474A9342E9
:104870000DD07B68464A934207D07B68454A9342F5
:1048800001D1042308E0072306E0032304E0022308
:1048900002E0012300E00023FA6902F00302920023
:1048A0009340BA691343BB613549FB699B080233E6
:1048B000BA6941F82320384B9B68BB613B69DB43F5
:1048C000BA691340BB613B685B6803F48013002B3B
:1048D00003D0BA693B691343BB612F4ABB6993603C
:1048E0002D4BDB68BB613B69DB43BA691340BB619D
:1048F0003B685B6803F40013002B03D0BA693B6983
:104900001343BB61244ABB69D360234B5B68BB6123
:104910003B69DB43BA691340BB613B685B6803F4E6
:104920000033002B03D0BA693B691343BB611A4AB9
:10493000BB695360184B1B68BB613B69DB43BA69B9
:104940001340BB613B685B6803F48033002B03D0EA
:10495000BA693B691343BB610F4ABB691360FB69CA
:104960000133FB61FB690F2B7FF6A2AE00BF00BFD6
:104970002437BD465DF8047B704700BF0038024015
:1049800000380140000002400004024000080240DC
:10499000000C024000100240003C014080B483B093
:1049A00000AF78600B467B8013467B707B78002BD2
:1049B00003D07A887B689A6103E07B881A047B685D
:1049C0009A6100BF0C37BD465DF8047B704700005C
:1049D00080B582B000AF0346FB80084B5A69FB8864
:1049E0001340002B06D0054AFB885361FB8818460C
:1049F00000F006F800BF0837BD4680BD003C01400E
:104A000080B483B000AF0346FB8000BF0C37BD46C7
:104A10005DF8047B7047000080B584B000AF78601B
:104A20007B68002B01D101232BE17B6893F83D309B
:104A3000DBB2002B06D17B68002283F83C2078682B
:104A4000FCF7FCFD7B68242283F83D207B681B6813
:104A50001A687B681B6822F001021A607B681B6879
:104A60001A687B681B6842F400421A607B681B6806
:104A70001A687B681B6822F400421A6002F030F862
:104A8000F8607B685B68814A934207D8FB68804A7C
:104A9000934294BF01230023DBB206E0FB687D4A0A
:104AA000934294BF01230023DBB2002B01D00123EA
:104AB000E7E0FB68784AA2FB03239B0CBB607B68A2
:104AC0001B685B6823F03F017B681B68BA680A4378
:104AD0005A607B681B681B6A23F03F017B685B6838
:104AE0006A4A934202D8BB68013309E0BB684FF4BD
:104AF000967202FB03F3694AA2FB03239B0901336D
:104B00007A6812680B4313627B681B68DB6923F4C5
:104B10004F4222F0FF027B685B685C498B4219D8E8
:104B2000FB68591E7B685B685B00B1FBF3F3591CA3
:104B300040F6FC730B40002B0AD0FB68591E7B68C3
:104B40005B685B00B1FBF3F30133C3F30B0351E08C
:104B500004234FE07B689B68002B11D1FB68581E33
:104B60007B6859680B465B000B44B0FBF3F30133E1
:104B7000C3F30B03002B0CBF01230023DBB212E0B5
:104B8000FB68581E7B6859680B469B000B449900D4
:104B90000B44B0FBF3F30133C3F30B03002B0CBF47
:104BA00001230023DBB2002B01D0012322E07B682C
:104BB0009B68002B0ED1FB68581E7B6859680B461A
:104BC0005B000B44B0FBF3F30133C3F30B0343F47B
:104BD00000430FE0FB68581E7B6859680B469B003A
:104BE0000B4499000B44B0FBF3F30133C3F30B0305
:104BF00043F44043796809681343CB617B681B68C1
:104C00001B6823F0C0017B68DA697B681B6A1A4362
:104C10007B681B680A431A607B681B689B6823F4E7
:104C2000034323F0FF037A6811697A68D26811435D
:104C30007A6812680B4393607B681B68DB6823F01B
:104C4000FF017B685A697B689B691A437B681B6814
:104C50000A43DA607B681B681A687B681B6842F04D
:104C600001021A607B6800221A647B68202283F8A4
:104C70003D207B6800221A637B68002283F83E2077
:104C8000002318461037BD4680BD00BFA086010036
:104C90007F841E00FF083D0083DE1B43D34D62105E
:104CA00080B588B002AFF8607A601A460B467B8107
:104CB00013463B81FFF77AFB7861FB6893F83D3040
:104CC000DBB2202B40F0E0807B69009319230122A6
:104CD0007049F86801F0F6F80346002B01D0022372
:104CE000D3E0FB6893F83C30012B01D10223CCE0E8
:104CF000FB68012283F83C20FB681B681B6803F0FB
:104D00000103012B07D0FB681B681A68FB681B684E
:104D100042F001021A60FB681B681A68FB681B6896
:104D200022F400621A60FB68212283F83D20FB68B0
:104D3000102283F83E20FB6800221A64FB687A6820
:104D40005A62FB683A895A85FB685B8D9AB2FB68A8
:104D50001A85FB68504ADA6279897B693A6AF86891
:104D600000F0E2FD0346002B01D001238DE000237B
:104D70003B61FB681B685B693B61FB681B689B6967
:104D80003B613B6966E07A69396AF86801F070F95D
:104D90000346002B0DD0FB681B6C042B07D1FB686E
:104DA0001B681A68FB681B6842F400721A600123D2
:104DB0006BE0FB685B6A1A78FB681B681A61FB682A
:104DC0005B6A5A1CFB685A62FB685B8D9BB2013BB5
:104DD0009AB2FB685A85FB681B8D013B9AB2FB684F
:104DE0001A85FB681B685B6903F00403042B1BD165
:104DF000FB681B8D002B17D0FB685B6A1A78FB6879
:104E00001B681A61FB685B6A5A1CFB685A62FB6884
:104E10005B8D9BB2013B9AB2FB685A85FB681B8D88
:104E2000013B9AB2FB681A857A69396AF86801F021
:104E300060F90346002B0DD0FB681B6C042B07D1D7
:104E4000FB681B681A68FB681B6842F400721A60F2
:104E500001231AE0FB681B8D002B94D1FB681B68B3
:104E60001A68FB681B6842F400721A60FB68202213
:104E700083F83D20FB68002283F83E20FB68002277
:104E800083F83C20002300E0022318461837BD4673
:104E900080BD00BF020010000000FFFF80B58CB095
:104EA00002AFF8607A601A460B467B8113463B815D
:104EB000FFF77CFA7862FB6893F83D30DBB2202B79
:104EC00040F00B827B6A0093192301227C49F86829
:104ED00000F0F8FF0346002B01D00223FEE1FB683F
:104EE00093F83C30012B01D10223F7E1FB6801224A
:104EF00083F83C20FB681B681B6803F00103012B4F
:104F000007D0FB681B681A68FB681B6842F0010247
:104F10001A60FB681B681A68FB681B6822F4006251
:104F20001A60FB68222283F83D20FB68102283F878
:104F30003E20FB6800221A64FB687A685A62FB68AC
:104F40003A895A85FB685B8D9AB2FB681A85FB68C3
:104F50005C4ADA6279897B6A3A6BF86800F066FD30
:104F60000346002B01D00123B8E1FB681B8D002B09
:104F700013D100233B62FB681B685B693B62FB68E3
:104F80001B689B693B623B6AFB681B681A68FB688D
:104F90001B6842F400721A608CE1FB681B8D012BC8
:104FA0001BD1FB681B681A68FB681B6822F48062CF
:104FB0001A600023FB61FB681B685B69FB61FB688F
:104FC0001B689B69FB61FB69FB681B681A68FB68CF
:104FD0001B6842F400721A606CE1FB681B8D022BA7
:104FE0001BD1FB681B681A68FB681B6822F480628F
:104FF0001A60FB681B681A68FB681B6842F4006251
:105000001A600023BB61FB681B685B69BB61FB68BE
:105010001B689B69BB61BB694CE1FB681B681A6834
:10502000FB681B6842F480621A6000237B61FB68A6
:105030001B685B697B61FB681B689B697B617B69A3
:1050400038E1FB681B8D032B00F2F180FB681B8DA0
:10505000012B23D17A6A396BF86801F08BF803468B
:10506000002B01D0012339E1FB681B681A69FB683A
:105070005B6AD2B21A70FB685B6A5A1CFB685A62A0
:10508000FB681B8D013B9AB2FB681A85FB685B8D40
:105090009BB2013B9AB2FB685A850BE1FB681B8D02
:1050A000022B4ED17B6A00933B6B00220649F868C5
:1050B00000F008FF0346002B08D001230EE100BFDB
:1050C000020010000000FFFF04000100FB681B68E5
:1050D0001A68FB681B6842F400721A60FB681B6860
:1050E0001A69FB685B6AD2B21A70FB685B6A5A1C69
:1050F000FB685A62FB681B8D013B9AB2FB681A85FC
:10510000FB685B8D9BB2013B9AB2FB685A85FB68DA
:105110001B681A69FB685B6AD2B21A70FB685B6A2B
:105120005A1CFB685A62FB681B8D013B9AB2FB68F4
:105130001A85FB685B8D9BB2013B9AB2FB685A856E
:10514000B8E07B6A00933B6B00226649F86800F088
:10515000B9FE0346002B01D00123BFE0FB681B68AA
:105160001A68FB681B6822F480621A60FB681B687F
:105170001A69FB685B6AD2B21A70FB685B6A5A1CD8
:10518000FB685A62FB681B8D013B9AB2FB681A856B
:10519000FB685B8D9BB2013B9AB2FB685A857B6AC8
:1051A00000933B6B00224F49F86800F08BFE0346EA
:1051B000002B01D0012391E0FB681B681A68FB6893
:1051C0001B6842F400721A60FB681B681A69FB686E
:1051D0005B6AD2B21A70FB685B6A5A1CFB685A623F
:1051E000FB681B8D013B9AB2FB681A85FB685B8DDF
:1051F0009BB2013B9AB2FB685A85FB681B681A692F
:10520000FB685B6AD2B21A70FB685B6A5A1CFB6867
:105210005A62FB681B8D013B9AB2FB681A85FB68DA
:105220005B8D9BB2013B9AB2FB685A8542E07A6A79
:10523000396BF86800F09EFF0346002B01D0012374
:105240004CE0FB681B681A69FB685B6AD2B21A7093
:10525000FB685B6A5A1CFB685A62FB681B8D013B4A
:105260009AB2FB681A85FB685B8D9BB2013B9AB2D0
:10527000FB685A85FB681B685B6903F00403042B19
:1052800018D1FB681B681A69FB685B6AD2B21A7096
:10529000FB685B6A5A1CFB685A62FB681B8D013B0A
:1052A0009AB2FB681A85FB685B8D9BB2013B9AB290
:1052B000FB685A85FB681B8D002B7FF4C2AEFB6830
:1052C000202283F83D20FB68002283F83E20FB6803
:1052D000002283F83C20002300E0022318462837F0
:1052E000BD4680BD0400010080B588B002AFF86003
:1052F000084611461A4603467B810B463B811346FE
:10530000FB80FFF753F87861FB6893F83D30DBB220
:10531000202B40F0D9807B690093192301226D492D
:10532000F86800F0CFFD0346002B01D00223CCE04B
:10533000FB6893F83C30012B01D10223C5E0FB68E8
:10534000012283F83C20FB681B681B6803F0010303
:10535000012B07D0FB681B681A68FB681B6842F0CA
:1053600001021A60FB681B681A68FB681B6822F45C
:1053700000621A60FB68212283F83D20FB6840220E
:1053800083F83E20FB6800221A64FB683A6A5A627E
:10539000FB68BA8C5A85FB685B8D9AB2FB681A85EC
:1053A000FB684D4ADA62F8883A8979897B6901930A
:1053B000BB6A00930346F86800F006FC0346002B26
:1053C00052D0012381E07A69B96AF86800F050FE92
:1053D0000346002B0DD0FB681B6C042B07D1FB6828
:1053E0001B681A68FB681B6842F400721A6001238C
:1053F0006BE0FB685B6A1A78FB681B681A61FB68E4
:105400005B6A5A1CFB685A62FB681B8D013B9AB2AF
:10541000FB681A85FB685B8D9BB2013B9AB2FB6807
:105420005A85FB681B685B6903F00403042B1BD1DE
:10543000FB681B8D002B17D0FB685B6A1A78FB6832
:105440001B681A61FB685B6A5A1CFB685A62FB683E
:105450001B8D013B9AB2FB681A85FB685B8D9BB282
:10546000013B9AB2FB685A85FB681B8D002BAAD1C1
:105470007A69B96AF86800F03CFE0346002B0DD04B
:10548000FB681B6C042B07D1FB681B681A68FB6860
:105490001B6842F400721A60012316E0FB681B6867
:1054A0001A68FB681B6842F400721A60FB682022CD
:1054B00083F83D20FB68002283F83E20FB68002231
:1054C00083F83C20002300E0022318461837BD462D
:1054D00080BD00BF020010000000FFFF80B58CB04F
:1054E00002AFF860084611461A4603467B810B4618
:1054F0003B811346FB80FEF759FF7862FB6893F807
:105500003D30DBB2202B40F008827B6A00931923E8
:1055100001227B49F86800F0D5FC0346002B01D03E
:105520000223FBE1FB6893F83C30012B01D10223FD
:10553000F4E1FB68012283F83C20FB681B681B68D0
:1055400003F00103012B07D0FB681B681A68FB6896
:105550001B6842F001021A60FB681B681A68FB684E
:105560001B6822F400621A60FB68222283F83D2047
:10557000FB68402283F83E20FB6800221A64FB6827
:105580003A6B5A62FB68BA8E5A85FB685B8D9AB299
:10559000FB681A85FB685B4ADA62F8883A89798980
:1055A0007B6A0193BB6B00930346F86800F0A2FB93
:1055B0000346002B01D00123B0E1FB681B8D002BBB
:1055C00013D100233B62FB681B685B693B62FB688D
:1055D0001B689B693B623B6AFB681B681A68FB6837
:1055E0001B6842F400721A6084E1FB681B8D012B7A
:1055F0001BD1FB681B681A68FB681B6822F4806279
:105600001A600023FB61FB681B685B69FB61FB6838
:105610001B689B69FB61FB69FB681B681A68FB6878
:105620001B6842F400721A6064E1FB681B8D022B58
:105630001BD1FB681B681A68FB681B6822F4806238
:105640001A60FB681B681A68FB681B6842F40062FA
:105650001A600023BB61FB681B685B69BB61FB6868
:105660001B689B69BB61BB6944E100237B61FB68EC
:105670001B685B697B61FB681B689B697B617B695D
:1056800038E1FB681B8D032B00F2F180FB681B8D5A
:10569000012B23D17A6AB96BF86800F06BFD0346E1
:1056A000002B01D0012339E1FB681B681A69FB68F4
:1056B0005B6AD2B21A70FB685B6A5A1CFB685A625A
:1056C000FB681B8D013B9AB2FB681A85FB685B8DFA
:1056D0009BB2013B9AB2FB685A850BE1FB681B8DBC
:1056E000022B4ED17B6A0093BB6B00220649F868FF
:1056F00000F0E8FB0346002B08D001230EE100BFB9
:10570000020010000000FFFF04000100FB681B689E
:105710001A68FB681B6842F400721A60FB681B6819
:105720001A69FB685B6AD2B21A70FB685B6A5A1C22
:10573000FB685A62FB681B8D013B9AB2FB681A85B5
:10574000FB685B8D9BB2013B9AB2FB685A85FB6894
:105750001B681A69FB685B6AD2B21A70FB685B6AE5
:105760005A1CFB685A62FB681B8D013B9AB2FB68AE
:105770001A85FB685B8D9BB2013B9AB2FB685A8528
:10578000B8E07B6A0093BB6B00226649F86800F0C2
:1057900099FB0346002B01D00123BFE0FB681B6887
:1057A0001A68FB681B6822F480621A60FB681B6839
:1057B0001A69FB685B6AD2B21A70FB685B6A5A1C92
:1057C000FB685A62FB681B8D013B9AB2FB681A8525
:1057D000FB685B8D9BB2013B9AB2FB685A857B6A82
:1057E0000093BB6B00224F49F86800F06BFB034647
:1057F000002B01D0012391E0FB681B681A68FB684D
:105800001B6842F400721A60FB681B681A69FB6827
:105810005B6AD2B21A70FB685B6A5A1CFB685A62F8
:10582000FB681B8D013B9AB2FB681A85FB685B8D98
:105830009BB2013B9AB2FB685A85FB681B681A69E8
:10584000FB685B6AD2B21A70FB685B6A5A1CFB6821
:105850005A62FB681B8D013B9AB2FB681A85FB6894
:105860005B8D9BB2013B9AB2FB685A8542E07A6A33
:10587000B96BF86800F07EFC0346002B01D00123D1
:105880004CE0FB681B681A69FB685B6AD2B21A704D
:10589000FB685B6A5A1CFB685A62FB681B8D013B04
:1058A0009AB2FB681A85FB685B8D9BB2013B9AB28A
:1058B000FB685A85FB681B685B6903F00403042BD3
:1058C00018D1FB681B681A69FB685B6AD2B21A7050
:1058D000FB685B6A5A1CFB685A62FB681B8D013BC4
:1058E0009AB2FB681A85FB685B8D9BB2013B9AB24A
:1058F000FB685A85FB681B8D002B7FF4C2AEFB68EA
:10590000202283F83D20FB68002283F83E20FB68BC
:10591000002283F83C20002300E0022318462837A9
:10592000BD4680BD0400010080B588B002AFF860BC
:105930007A603B600B467B81FB68DB6A7B617B693D
:10594000082B06D07B69012B03D07B6913F5803FC0
:1059500008D1FB681B681A68FB681B6842F48072F8
:105960001A600BE0FB681B6B122B07D1FB681B68EE
:105970001A68FB681B6842F480721A603B680093E7
:105980007B6800224FF00111F86800F09BFA034693
:10599000002B0DD0FB681B681B6803F48073B3F504
:1059A000807F03D1FB684FF400721A64032335E053
:1059B000FB681B69B3F5804F08D17B89DBB21A46BF
:1059C000FB681B6802F0FE021A611BE07B89DB1199
:1059D000DBB203F00603DBB263F00F03DAB2FB685D
:1059E0001B681A613B687A680E49F86800F0C1FAD2
:1059F0000346002B01D0012310E07B89DAB2FB685B
:105A00001B681A613B687A680749F86800F0B1FAC8
:105A10000346002B01D0012300E00023184618376D
:105A2000BD4680BD080001000200010080B588B0BD
:105A300002AFF8607A603B600B467B81FB68DB6AF3
:105A40007B61FB681B681A68FB681B6842F4806214
:105A50001A607B69082B06D07B69012B03D07B6918
:105A600013F5803F08D1FB681B681A68FB681B6848
:105A700042F480721A600BE0FB681B6B112B07D19C
:105A8000FB681B681A68FB681B6842F480721A6026
:105A90003B6800937B6800224FF00111F86800F02A
:105AA00011FA0346002B0DD0FB681B681B6803F43A
:105AB0008073B3F5807F03D1FB684FF400721A64E2
:105AC000032379E0FB681B69B3F5804F08D17B891C
:105AD000DBB243F00103DAB2FB681B681A615FE0D6
