:020000040800F2
:1000000000500020D11B000899190008A119000810
:10001000BD190008C3190008C91900080000000034
:10002000000000000000000000000000CF190008E0
:10003000DB19000800000000E7190008F3190008A8
:10004000191C0008191C0008191C0008191C0008BC
:10005000191C0008191C0008191C0008011A0008C6
:10006000191C0008191C0008191C0008191C00089C
:10007000191C0008191C0008191C0008191C00088C
:10008000191C0008191C0008191C0008191C00087C
:10009000191C0008191C0008191C0008191C00086C
:1000A000191C0008191C0008191C0008191C00085C
:1000B000291A0008191C0008191C0008191C00083E
:1000C000191C0008191C0008191C0008191C00083C
:1000D000191C0008191C0008191C0008191C00082C
:1000E000191C0008191C0008191C00080000000059
:1000F0000000000000000000000000000000000000
:0C01000000000000000000005FF808F1A3
:1001100010B5054C237833B9044B13B10448AFF341
:1001200000800123237010BDF401002000000000B6
:10013000009E000808B5034B1BB103490348AFF309
:10014000008008BD00000000F8010020009E0008AB
:10015000034613F8012B002AFBD1181A0138704707
:1001600081F0004102E000BF83F0004330B54FEA68
:1001700041044FEA430594EA050F08BF90EA020FD5
:100180001FBF54EA000C55EA020C7FEA645C7FEA68
:10019000655C00F0E2804FEA5454D4EB5555B8BF8B
:1001A0006D420CDD2C4480EA020281EA030382EAFC
:1001B000000083EA010180EA020281EA0303362D8E
:1001C00088BF30BD11F0004F4FEA01314FF4801C61
:1001D0004CEA113102D0404261EB410113F0004F73
:1001E0004FEA03334CEA133302D0524263EB43032A
:1001F00094EA050F00F0A780A4F10104D5F1200EC8
:100200000DDB02FA0EFC22FA05F2801841F1000122
:1002100003FA0EF2801843FA05F359410EE0A5F1F6
:1002200020050EF1200E012A03FA0EFC28BF4CF027
:10023000020C43FA05F3C01851EBE37101F00045DD
:1002400007D54FF0000EDCF1000C7EEB00006EEBEA
:100250000101B1F5801F1BD3B1F5001F0CD3490874
:100260005FEA30004FEA3C0C04F101044FEA4452CB
:1002700012F5800F80F09A80BCF1004F08BF5FEA52
:10028000500C50F1000041EB045141EA050130BD32
:100290005FEA4C0C404141EB0101013C28BFB1F544
:1002A000801FE9D291F0000F04BF01460020B1FA8F
:1002B00081F308BF2033A3F10B03B3F120020CDA62
:1002C0000C3208DD02F1140CC2F10C0201FA0CF040
:1002D00021FA02F10CE002F11402D8BFC2F1200CA5
:1002E00001FA02F120FA0CFCDCBF41EA0C0190405B
:1002F000E41AA2BF01EB0451294330BD6FEA0404A4
:100300001F3C1CDA0C340EDC04F11404C4F120028E
:1003100020FA04F001FA02F340EA030021FA04F3A0
:1003200045EA030130BDC4F10C04C4F1200220FAF7
:1003300002F001FA04F340EA0300294630BD21FA35
:1003400004F0294630BD94F0000F83F4801306BFFB
:1003500081F480110134013D4EE77FEA645C18BFEF
:100360007FEA655C29D094EA050F08BF90EA020F86
:1003700005D054EA000C04BF1946104630BD91EA7E
:10038000030F1EBF0021002030BD5FEA545C05D181
:100390004000494128BF41F0004130BD14F58004C0
:1003A0003CBF01F5801130BD01F0004545F0FE4134
:1003B00041F470014FF0000030BD7FEA645C1ABF69
:1003C000194610467FEA655C1CBF0B46024650EAA0
:1003D000013406BF52EA033591EA030F41F40021CC
:1003E00030BD00BF90F0000F04BF0021704730B552
:1003F0004FF4806404F132044FF000054FF0000127
:1004000050E700BF90F0000F04BF0021704730B5E7
:100410004FF4806404F1320410F0004548BF4042BC
:100420004FF000013EE700BF42004FEAE2014FEA11
:1004300031014FEA02701FBF12F07F4393F07F4FEC
:1004400081F06051704732F07F4208BF704793F0EF
:100450007F4F04BF41F40021704730B54FF4607402
:1004600001F0004521F000411CE700BF50EA010205
:1004700008BF704730B54FF000050AE050EA0102AE
:1004800008BF704730B511F0004502D5404261EB1E
:1004900041014FF4806404F132045FEA915C3FF45F
:1004A000D8AE4FF003025FEADC0C18BF03325FEAFC
:1004B000DC0C18BF033202EBDC02C2F1200300FAAD
:1004C00003FC20FA02F001FA03FE40EA0E0021FAD2
:1004D00002F11444BDE600BF70B54FF0FF0C4CF4C0
:1004E000E06C1CEA11541DBF1CEA135594EA0C0F72
:1004F00095EA0C0F00F0DEF82C4481EA030621EAAD
:100500004C5123EA4C5350EA013518BF52EA0335E7
:1005100041F4801143F4801338D0A0FB02CE4FF099
:100520000005E1FB02E506F00042E0FB03E54FF0C9
:100530000006E1FB03569CF0000F18BF4EF0010EC1
:10054000A4F1FF04B6F5007F64F5407404D25FEABD
:100550004E0E6D4146EB060642EAC62141EA555170
:100560004FEAC52040EA5E504FEACE2EB4F1FD0CB2
:1005700088BFBCF5E06F1ED8BEF1004F08BF5FEA30
:10058000500E50F1000041EB045170BD06F00046E2
:1005900046EA010140EA020081EA0301B4EB5C048F
:1005A000C2BFD4EB0C0541EA045170BD41F4801187
:1005B0004FF0000E013C00F3AB8014F1360FDEBFAC
:1005C000002001F0004170BDC4F10004203C35DA88
:1005D0000C341BDC04F11404C4F1200500FA05F30B
:1005E00020FA04F001FA05F240EA020001F00042AC
:1005F00021F0004110EBD37021FA04F642EB060122
:100600005EEA430E08BF20EAD37070BDC4F10C044B
:10061000C4F1200500FA04F320FA05F001FA04F20F
:1006200040EA020001F0004110EBD37041F10001FB
:100630005EEA430E08BF20EAD37070BDC4F1200506
:1006400000FA05F24EEA020E20FA04F301FA05F26E
:1006500043EA020321FA04F001F0004121FA04F216
:1006600020EA020000EBD3705EEA430E08BF20EAE6
:10067000D37070BD94F0000F0FD101F00046400020
:1006800041EB010111F4801F08BF013CF7D041EAA2
:10069000060195F0000F18BF704703F000465200A6
:1006A00043EB030313F4801F08BF013DF7D043EA77
:1006B0000603704794EA0C0F0CEA135518BF95EA2D
:1006C0000C0F0CD050EA410618BF52EA4306D1D1B4
:1006D00081EA030101F000414FF0000070BD50EAD3
:1006E000410606BF1046194652EA430619D094EA5D
:1006F0000C0F02D150EA013613D195EA0C0F05D147
:1007000052EA03361CBF104619460AD181EA03019A
:1007100001F0004141F0FE4141F470014FF0000052
:1007200070BD41F0FE4141F4780170BD70B54FF0ED
:10073000FF0C4CF4E06C1CEA11541DBF1CEA13556D
:1007400094EA0C0F95EA0C0F00F0A7F8A4EB05044F
:1007500081EA030E52EA03354FEA013100F0888046
:100760004FEA03334FF0805545EA131343EA12630F
:100770004FEA022245EA111545EA10654FEA0026C4
:100780000EF000419D4208BF964244F1FD0404F57D
:10079000407402D25B084FEA3202B61A65EB0305D9
:1007A0005B084FEA32024FF480104FF4002CB6EB96
:1007B000020E75EB030E22BFB61A754640EA0C0016
:1007C0005B084FEA3202B6EB020E75EB030E22BF56
:1007D000B61A754640EA5C005B084FEA3202B6EB97
:1007E000020E75EB030E22BFB61A754640EA9C0056
:1007F0005B084FEA3202B6EB020E75EB030E22BF26
:10080000B61A754640EADC0055EA060E18D04FEAE3
:10081000051545EA16754FEA06164FEAC30343EA83
:1008200052734FEAC2025FEA1C1CC0D111F4801F50
:100830000BD141EA00014FF000004FF0004CB6E749
:1008400011F4801F04BF01430020B4F1FD0C88BFE8
:10085000BCF5E06F3FF6AFAEB5EB030C04BFB6EBF3
:10086000020C5FEA500C50F1000041EB045170BDE6
:100870000EF0004E4EEA113114EB5C04C2BFD4EB13
:100880000C0541EA045170BD41F480114FF0000E97
:10089000013C90E645EA060E8DE60CEA135594EA13
:1008A0000C0F08BF95EA0C0F3FF43BAF94EA0C0F16
:1008B0000AD150EA01347FF434AF95EA0C0F7FF48B
:1008C00025AF104619462CE795EA0C0F06D152EADF
:1008D00003353FF4FDAE1046194622E750EA4106C3
:1008E00018BF52EA43067FF4C5AE50EA41047FF4D4
:1008F0000DAF52EA43057FF4EBAE12E74FF0FF3C39
:1009000006E000BF4FF0010C02E000BF4FF0010C09
:100910004DF804CD4FEA410C7FEA6C5C4FEA430C82
:1009200018BF7FEA6C5C1BD001B050EA410C0CBFD1
:1009300052EA430C91EA030F02BF90EA020F002033
:10094000704710F1000F91EA030F58BF994208BF9A
:1009500090422CBFD8176FEAE37040F00100704757
:100960004FEA410C7FEA6C5C02D150EA013C07D1AE
:100970004FEA430C7FEA6C5CD6D152EA033CD3D0F9
:100980005DF8040B704700BF8446104662468C46F3
:100990001946634600E000BF01B5FFF7B7FF002826
:1009A00048BF10F1000F01BD4DF808EDFFF7F4FF4F
:1009B0000CBF012000205DF808FB00BF4DF808EDDA
:1009C000FFF7EAFF34BF012000205DF808FB00BFFD
:1009D0004DF808EDFFF7E0FF94BF012000205DF81F
:1009E00008FB00BF4DF808EDFFF7CEFF94BF0120D4
:1009F00000205DF808FB00BF4DF808EDFFF7C4FFCD
:100A000034BF012000205DF808FB00BF4FEA410C15
:100A10007FEA6C5C02D150EA013C0AD14FEA430CF8
:100A20007FEA6C5C02D152EA033C02D14FF0000035
:100A300070474FF0010070474FEA410212F5001273
:100A400015D211D56FF47873B3EB625212D94FEA15
:100A5000C12343F0004343EA505311F0004F23FAFF
:100A600002F018BF404270474FF00000704750EA54
:100A7000013005D111F0004008BF6FF00040704711
:100A80004FF00000704700BF4A0011D212F500126B
:100A900011D20DD56FF47873B3EB62520ED44FEAD6
:100AA000C12343F0004343EA505323FA02F0704756
:100AB0004FF00000704750EA013002D14FF0FF3094
:100AC00070474FF00000704780F0004002E000BF28
:100AD00081F0004142001FBF5FEA410392EA030F29
:100AE0007FEA226C7FEA236C6AD04FEA1262D2EB73
:100AF0001363C1BFD218414048404140B8BF5B4278
:100B0000192B88BF704710F0004F40F4000020F010
:100B10007F4018BF404211F0004F41F4000121F026
:100B20007F4118BF494292EA030F3FD0A2F1010270
:100B300041FA03FC10EB0C00C3F1200301FA03F1AE
:100B400000F0004302D5494260EB4000B0F5000FD1
:100B500013D3B0F1807F06D340084FEA310102F190
:100B60000102FE2A51D2B1F1004F40EBC25008BF42
:100B700020F0010040EA03007047490040EB00000C
:100B8000013A28BFB0F5000FEDD2B0FA80FCACF10D
:100B9000080CB2EB0C0200FA0CF0AABF00EBC2503A
:100BA00052421843BCBFD0401843704792F0000F28
:100BB00081F4000106BF80F400000132013BB5E77B
:100BC0004FEA41037FEA226C18BF7FEA236C21D0F1
:100BD00092EA030F04D092F0000F08BF0846704756
:100BE00090EA010F1CBF0020704712F07F4F04D124
:100BF000400028BF40F00040704712F100723CBF37
:100C000000F50000704700F0004343F0FE4040F460
:100C1000000070477FEA226216BF08467FEA23631E
:100C20000146420206BF5FEA412390EA010F40F409
:100C3000800070474FF0000304E000BF10F0004355
:100C400048BF40425FEA000C08BF704743F096433C
:100C500001464FF000001CE050EA010208BF704757
:100C60004FF000030AE000BF50EA010208BF7047DE
:100C700011F0004302D5404261EB41015FEA010CF3
:100C800002BF84460146002043F0B64308BFA3F1EB
:100C90008053A3F50003BCFA8CF2083AA3EBC253CD
:100CA00010DB01FA02FC634400FA02FCC2F12002EC
:100CB000BCF1004F20FA02F243EB020008BF20F023
:100CC0000100704702F1200201FA02FCC2F1200289
:100CD00050EA4C0021FA02F243EB020008BF20EA7E
:100CE000DC7070474FF0FF0C1CEAD0521EBF1CEAAC
:100CF000D15392EA0C0F93EA0C0F6FD01A4480EA9A
:100D0000010C400218BF5FEA41211ED04FF0006382
:100D100043EA501043EA5111A0FB01310CF00040AE
:100D2000B1F5000F3EBF490041EAD3715B0040EAD4
:100D3000010062F17F02FD2A1DD8B3F1004F40EBA4
:100D4000C25008BF20F00100704790F0000F0CF077
:100D5000004C08BF49024CEA502040EA51207F3A3B
:100D6000C2BFD2F1FF0340EAC250704740F4000016
:100D70004FF00003013A5DDC12F1190FDCBF00F007
:100D800000407047C2F10002410021FA02F1C2F1B5
:100D9000200200FA02FC5FEA310040F1000053EA51
:100DA0004C0308BF20EADC70704792F0000F00F09F
:100DB000004C02BF400010F4000F013AF9D040EAA5
:100DC0000C0093F0000F01F0004C02BF490011F439
:100DD000000F013BF9D041EA0C018FE70CEAD15337
:100DE00092EA0C0F18BF93EA0C0F0AD030F0004CB7
:100DF00018BF31F0004CD8D180EA010000F000406B
:100E0000704790F0000F17BF90F0004F084691F028
:100E1000000F91F0004F14D092EA0C0F01D1420262
:100E20000FD193EA0C0F03D14B0218BF084608D12B
:100E300080EA010000F0004040F0FE4040F4000075
:100E4000704740F0FE4040F4400070474FF0FF0C08
:100E50001CEAD0521EBF1CEAD15392EA0C0F93EA4F
:100E60000C0F69D0A2EB030280EA010C49024FEAA1
:100E7000402037D04FF0805343EA111143EA10135A
:100E80000CF000408B4238BF5B0042F17D024FF412
:100E9000000C8B4224BF5B1A40EA0C00B3EB510FED
:100EA00024BFA3EB510340EA5C00B3EB910F24BFD6
:100EB000A3EB910340EA9C00B3EBD10F24BFA3EB5B
:100EC000D10340EADC001B0118BF5FEA1C1CE0D123
:100ED000FD2A3FF650AF8B4240EBC25008BF20F0D6
:100EE000010070470CF0004C4CEA50207F32C2BF2A
:100EF000D2F1FF0340EAC250704740F400004FF0C7
:100F00000003013A37E792F0000F00F0004C02BFF7
:100F1000400010F4000F013AF9D040EA0C0093F0C1
:100F2000000F01F0004C02BF490011F4000F013B1B
:100F3000F9D041EA0C0195E70CEAD15392EA0C0F83
:100F400008D142027FF47DAF93EA0C0F7FF470AFBB
:100F5000084676E793EA0C0F04D14B023FF44CAFFE
:100F600008466EE730F0004C18BF31F0004CCAD193
:100F700030F000427FF45CAF31F000437FF43CAFCF
:100F80005FE700BF4FF0FF3C06E000BF4FF0010CF1
:100F900002E000BF4FF0010C4DF804CD4FEA4002D3
:100FA0004FEA41037FEA226C18BF7FEA236C11D01D
:100FB00001B052EA530C18BF90EA010F58BFB2EBD0
:100FC000030088BFC81738BF6FEAE17018BF40F050
:100FD000010070477FEA226C02D15FEA402C05D104
:100FE0007FEA236CE4D15FEA412CE1D05DF8040B89
:100FF000704700BF844608466146FFE70FB5FFF71C
:10100000C9FF002848BF10F1000F0FBD4DF808EDD3
:10101000FFF7F4FF0CBF012000205DF808FB00BFC4
:101020004DF808EDFFF7EAFF34BF012000205DF81E
:1010300008FB00BF4DF808EDFFF7E0FF94BF01206B
:1010400000205DF808FB00BF4DF808EDFFF7D2FF68
:1010500094BF012000205DF808FB00BF4DF808EDAB
:10106000FFF7C8FF34BF012000205DF808FB00BF78
:101070004FEA4002B2F1FE4F0FD34FF09E03B3EBA5
:1010800012620DD94FEA002343F0004310F0004FE5
:1010900023FA02F018BF404270474FF0000070473B
:1010A00012F1610F01D1420205D110F0004008BFDA
:1010B0006FF0004070474FF00000704742000ED2C2
:1010C000B2F1FE4F0BD34FF09E03B3EB126209D483
:1010D0004FEA002343F0004323FA02F070474FF039
:1010E0000000704712F1610F01D1420202D14FF0AE
:1010F000FF3070474FF00000704700BFB0B5B8B088
:1011000002AF03F04FF900F0D3F900F0BBFA00F0A2
:101110000BFA00F08DFA00F03DFAA74B1B68A749C7
:10112000184605F031FDA44B1B68A549184605F08B
:101130002BFD05F091FDA04B1B68A249184605F058
:1011400023FDA14B1B78022B02D1A04804F084FEA2
:1011500005F0EEFB03461A469D4B1A709C4B9D4AC8
:101160005C1C15460FCD20606160A260E3609A4868
:1011700000F00CFE904B1B689849184605F004FDE2
:10118000914B1B78052BFBD801A252F823F000BF2E
:10119000D1110008E1120008A91100088D13000800
:1011A000A1130008F5130008834B1B688C491846EF
:1011B00005F0EAFC07F184000323009302230122D7
:1011C0004FF07E5105F0C8FB7F4B00221A705EE1A4
:1011D00007F1340332220021184605F0D7FE07F14B
:1011E0003403804A92E80300186004331980002316
:1011F000C7F8D43017E007F18402D7F8D43013448D
:101200001B781A463B467849184606F027FB3A46B3
:1012100007F134031146184606F040FBD7F8D430E6
:101220000133C7F8D430D7F8D4300B2BE3DD624B51
:101230001B6807F134021146184605F0A5FC07F1BA
:1012400084030C21184600F023FD00F0CDFD00BF03
:10125000664BDB7803F04003DBB2002BF8D007F1DC
:1012600074031021184600F055FD07F134033222B3
:101270000021184605F08AFE07F13403594A92E826
:1012800003001860043319800023C7F8D03017E03A
:1012900007F17402D7F8D03013441B781A463B4646
:1012A0005149184606F0DAFA3A4607F13403114676
:1012B000184606F0F3FAD7F8D0300133C7F8D0302B
:1012C000D7F8D0300F2BE3DD3B4B1B6807F134021E
:1012D0001146184605F058FC3B4B03221A70D6E025
:1012E00007F1B8031021184600F0D2FC00F08EFD83
:1012F00000BF3E4BDB7803F04003DBB2002BF8D09D
:1013000007F168030C21184600F004FD07F13403CF
:1013100032220021184605F039FE07F13403314A24
:1013200092E803001860043319800023C7F8CC301A
:1013300017E007F16802D7F8CC3013441B781A463F
:101340003B462949184606F089FA3A4607F1340324
:101350001146184606F0A2FAD7F8CC300133C7F888
:10136000CC30D7F8CC300B2BE3DD134B1B6807F1E7
:1013700034021146184605F007FC07F168031846C9
:1013800005F06CFB104B04221A7080E007F1740327
:101390001021184605F090FD0B4B05221A7076E0DF
:1013A000054B1B681249184605F0EEFB05F0A8FD39
:1013B000054B05221A706AE000000020209E0008FC
:1013C000549E0008709E000804000020680200205F
:1013D000F8020020849E0008F9020020989E000870
:1013E000A89E0008BC9E0008C49E00080C030020B4
:1013F000C89E0008264B1B78012B47D1254B1B6844
:101400002549184605F0C0FB214B00221A70234BDA
:101410001B7803F00103DBB2002B0DD01D4B1B68C2
:101420001F49184605F0B0FB07F1B803184605F050
:1014300070FD1C4B01221A70184B1B7803F002033D
:10144000DBB2002B02D0174B04221A70134B1B780F
:1014500003F00403DBB2002B08D00E4B1B681249CB
:10146000184605F091FB0F4B05221A700B4BDB78E9
:1014700003F04003DBB2002B08D0064B1B680B497E
:10148000184605F081FB074B05221A7000BF77E66E
:10149000F402002000000020DC9E00080C03002065
:1014A000EC9E000804000020FC9E0008089F000835
:1014B00080B590B000AF07F118032822002118462C
:1014C00005F064FD3B1D00221A605A609A60DA60E4
:1014D0001A610223BB610123BB621023FB6200235C
:1014E0007B6307F11803184603F0E0FA0346002B6C
:1014F00001D000F05FF90F237B600023BB60002365
:10150000FB6000233B6100237B613B1D00211846EB
:1015100003F04EFD0346002B01D000F04BF900BF55
:101520004037BD4680BD000080B500AF174B184A5C
:101530001A60164B4FF482725A60144B00229A6064
:10154000124B0022DA60114B00221A610F4B00226D
:101550005A610E4B4FF400729A610C4B2822DA61EB
:101560000A4B00221A62094B00225A62074B0022E2
:101570009A62064B0A22DA62044803F0B1FE03467F
:10158000002B01D000F016F900BF80BD1002002032
:101590000030014080B586B000AF07F1080300229B
:1015A0001A605A609A60DA603B4600221A605A60FC
:1015B0001E4B4FF080421A601C4B4FF4FA625A6087
:1015C0001A4B00229A60194B49F64042DA60174BD9
:1015D00000221A61154B00229A61144804F0ECFBBA
:1015E0000346002B01D000F0E5F84FF48053BB60B8
:1015F00007F1080319460D4804F088FD0346002B47
:1016000001D000F0D7F800233B6000237B603B460D
:101610001946064804F064FF0346002B01D000F091
:10162000C9F800BF1837BD4680BD00BF6802002062
:1016300080B500AF114B124A1A60104B4FF4E132E3
:101640005A600E4B00229A600C4B0022DA600B4B62
:1016500000221A61094B0C225A61084B00229A6140
:10166000064B0022DA61054804F0AAFF0346002B6E
:1016700001D000F09FF800BF80BD00BFB002002085
:101680000038014080B588B000AF07F11003002298
:101690001A605A609A60DA60414B9B69404A43F095
:1016A000100393613E4B9B6903F01003FB60FB68E2
:1016B0003B4B9B693A4A43F020039361384B9B694B
:1016C00003F02003BB60BB68354B9B69344A43F091
:1016D00004039361324B9B6903F004037B607B68D6
:1016E0002F4B9B692E4A43F0080393612C4B9B6957
:1016F00003F008033B603B6800224FF40051294887
:1017000003F09AF901221021274803F095F90022ED
:101710000121264803F090F94FF400533B61012367
:101720007B610023BB610223FB6107F110031946B3
:101730001C4802F0FDFF10233B6101237B61002365
:10174000BB610223FB6107F110031946164802F042
:10175000EFFF01233B6101237B610023BB61022377
:10176000FB6107F110031946104802F0E1FF022364
:101770003B610F4B7B610023BB6107F110031946EE
:101780000A4802F0D5FF00220021072002F08BFF5B
:10179000072002F0A4FF00BF2037BD4680BD00BF78
:1017A000001002400010014000080140000C014000
:1017B0000000211080B400AF72B600BFFEE7000049
:1017C00080B485B000AF154B9B69144A43F0010308
:1017D0009361124B9B6903F00103BB60BB680F4B25
:1017E000DB690E4A43F08053D3610C4BDB6903F095
:1017F00080537B607B680A4B5B68FB60FB6823F06F
:10180000E063FB60FB6843F08063FB60044AFB68B5
:10181000536000BF1437BD4680BC704700100240C3
:101820000000014080B588B000AF786007F1100378
:1018300000221A605A609A60DA607B681B681B4A53
:1018400093422FD11A4B9B69194A43F480539361F9
:10185000174B9B6903F48053FB60FB68144B9B6937
:10186000134A43F004039361114B9B6903F0040393
:10187000BB60BB68A0233B6102237B610323FB6148
:1018800007F1100319460B4802F052FF40233B6159
:1018900000237B610023BB6107F110031946054853
:1018A00002F046FF00BF2037BD4680BD003001403A
:1018B000001002400008014080B584B000AF78609D
:1018C0007B681B68B3F1804F13D10C4BDB690B4A6B
:1018D00043F00103D361094BDB6903F00103FB60B3
:1018E000FB68002200211C2002F0DDFE1C2002F01B
:1018F000F6FE00BF1037BD4680BD00BF001002409D
:1019000080B588B000AF786007F1100300221A603C
:101910005A609A60DA607B681B681C4A934231D136
:101920001B4B9B691A4A43F480439361184B9B6994
:1019300003F48043FB60FB68154B9B69144A43F03A
:1019400004039361124B9B6903F00403BB60BB6803
:101950004FF400733B6102237B610323FB6107F1BA
:10196000100319460B4802F0E3FE4FF480633B611D
:1019700000237B610023BB6107F110031946054872
:1019800002F0D6FE00BF2037BD4680BD00380140C2
:10199000001002400008014080B400AFFEE70000E4
:1019A00080B500AF64230B220249034804F055FEC2
:1019B000FEE700BF249F0008B002002080B400AF03
:1019C000FEE780B400AFFEE780B400AFFEE780B46E
:1019D00000AF00BFBD4680BC704780B400AF00BF01
:1019E000BD4680BC704780B400AF00BFBD4680BC20
:1019F000704780B500AF02F01BFD00BF80BD000046
:101A000080B500AF064800F0C7FB00F0F7FB054BC0
:101A100001221A70022003F027F800BF80BD00BF2A
:101A20000C030020F402002080B500AF034B02221B
:101A30001A70034804F062FA00BF80BD0400002061
:101A40006802002080B400AF01231846BD4680BC68
:101A5000704780B582B000AF7860396005F06CFAED
:101A6000034616221A604FF0FF3318460837BD466A
:101A700080BD80B582B000AF78604FF0FF317868EC
:101A8000FFF7E7FFFEE780B586B000AFF860B9600A
:101A90007A6000237B610AE0AFF300800146BB68F7
:101AA0005A1CBA60CAB21A707B6901337B617A69C9
:101AB0007B689A42F0DB7B6818461837BD4680BDCC
:101AC00080B586B000AFF860B9607A6000237B61B2
:101AD00009E0BB685A1CBA601B781846AFF3008057
:101AE0007B6901337B617A697B689A42F1DB7B68B1
:101AF00018461837BD4680BD80B483B000AF78600B
:101B00004FF0FF3318460C37BD4680BC704780B499
:101B100083B000AF786039603B684FF400525A6080
:101B2000002318460C37BD4680BC704780B483B094
:101B300000AF7860012318460C37BD4680BC704763
:101B400080B485B000AFF860B9607A6000231846B1
:101B50001437BD4680BC704780B586B000AF786052
:101B6000144A154BD31A7B617B693B61134B1B688D
:101B7000002B02D1114B124A1A60104B1A687B6875
:101B800013443A699A4207D205F0D6F903460C226B
:101B90001A604FF0FF3309E0084B1B68FB60074BEE
:101BA0001A687B681344054A1360FB6818461837A7
:101BB000BD4680BD0050002000040000100300203E
:101BC0003803002080B400AF00BFBD4680BC704722
:101BD0000C480D490D4A002302E0D458C450043388
:101BE000C4188C42F9D30A4A0A4C002301E013605E
:101BF0000432A242FBD3FFF7E5FF05F0A3F9FFF79C
:101C00007DFA704700000020F40100207CA6000847
:101C1000F401002034030020FEE7000080B584B00A
:101C200000AF0346FB710023FB7307F10F031A4655
:101C30000121012002F080FA0246144B12B2114633
:101C40001970C2F307225A70FB79012B05D1FB7B77
:101C500043F02003DBB2FB7304E0FB7B23F02003A3
:101C6000DBB2FB7307F10F031A460121012002F0DA
:101C700017FA0246054B12B211461970C2F3072239
:101C80005A7000BF1037BD4680BD00BF1C03002046
:101C900080B588B000AF78600B46FB70FB78102BE6
:101CA00001D91023FB700023FB771BE0FA7FFB7840
:101CB000C3F110039A4206DAFB7F20333B44002233
:101CC00003F8142C0BE0FB7FC3F10F031A467B686B
:101CD0001A44FB7F127820333B4403F8142CFB7F1B
:101CE0000133FB77FB7F0F2BE0D907F10C031A467A
:101CF0001021802002F0D4F90246054B12B21146A1
:101D00001970C2F307225A7000BF2037BD4680BD4C
:101D10001C03002080B588B000AF78600B46FB70D4
:101D2000FB78102B01D91023FB70FB78C3F1FF2344
:101D300003F57F03E433FB7607F10802F978FB7EB5
:101D4000184602F0F9F902460F4B12B2114619700B
:101D5000C2F307225A70FB78013BFB610CE007F1EC
:101D60000802FB6913441A787B681A707B68013398
:101D70007B60FB69013BFB61FB69002BEFDA00BF75
:101D800000BF2037BD4680BD1C03002080B588B051
:101D900000AF78600023FB770DE0FB7F7A681A4480
:101DA000FB7FC3F10F03127820333B4403F8142C5C
:101DB000FB7F0133FB77FB7F0F2BEED907F10C0381
:101DC0001A461021702002F06BF90246054B12B240
:101DD00011461970C2F307225A7000BF2037BD4662
:101DE00080BD00BF1C03002080B500AF6A2002F058
:101DF000EFF90246044B12B211461970C2F30722E2
:101E00005A7000BF80BD00BF1C03002080B500AF2A
:101E10006D2002F0DDF90246044B12B21146197032
:101E2000C2F307225A7000BF80BD00BF1C03002010
:101E300080B584B000AF0346FB7107F10F031A466B
:101E40000121502002F078F90246144B12B21146DB
:101E50001970C2F307225A70FB79012B05D1FB7B65
:101E600043F00203DBB2FB7304E0FB7B23F00203CD
:101E7000DBB2FB7307F10F031A460121502002F079
:101E80000FF90246054B12B211461970C2F3072230
:101E90005A7000BF1037BD4680BD00BF1C03002034
:101EA00080B582B000AFFB1D1A460121E52002F08B
:101EB00043F90246074B12B211461970C2F30722CA
:101EC0005A70FB7903F07F03DBB218460837BD4632
:101ED00080BD00BF1C03002080B584B000AF034666
:101EE000FB7107F10F031A4601216E2002F024F95D
:101EF0000246124B12B211461970C2F307225A70F1
:101F0000FB7B23F07F03DBB2FB73FA7BFB7913438C
:101F1000DBB2FB7307F10F031A4601216E2002F0BA
:101F2000BFF80246054B12B211461970C2F30722E0
:101F30005A7000BF1037BD4680BD00BF1C03002093
:101F400080B584B000AF0346FB7107F10F031A465A
:101F500001216F2002F0F0F80246124B12B2114636
:101F60001970C2F307225A70FB7B23F07F03DBB2A8
:101F7000FB73FA7BFB791343DBB2FB7307F10F03AF
:101F80001A4601216F2002F08BF80246054B12B26F
:101F900011461970C2F307225A7000BF1037BD46B0
:101FA00080BD00BF1C03002080B584B000AF034695
:101FB000FB7107F10F031A4601219E2002F0BCF8C5
:101FC000FB7B23F00603DBB2FB73FB79012B05D10E
:101FD000FB7B43F00203DBB2FB7304E0FB7B43F0CB
:101FE0000403DBB2FB7307F10F031A4601219E20A5
:101FF00002F056F800BF1037BD4680BD80B582B0F4
:1020000000AF0346FB71FB79184602F0E1F8024687
:10201000054B12B211461970C2F307225A7000BF65
:102020000837BD4680BD00BF1C03002080B584B0CA
:1020300000AF78600023FB737B685A787B689B78DD
:102040001343DBB2FB737B681B7807F10F0201219E
:10205000184602F025F80246054B12B211461970D7
:10206000C2F307225A7000BF1037BD4680BD00BFC3
:102070001C03002080B584B000AF78600023FB60B3
:102080007B68002B0CD007F10803042200211846BE
:1020900004F07CFF7B681A4607F10803186810609B
:1020A00007F10C031A460421902001F0F9FF0246C3
:1020B000054B12B211461970C2F307225A7000BFC5
:1020C0001037BD4680BD00BF1C03002080B586B020
:1020D00000AF78600B46FB7000237B6107F10C03B7
:1020E0001A460421902002F027F80246294B12B22A
:1020F00011461970C2F307225A700023FB7411E0D5
:10210000FB7C18333B4413F80C3C1A46FB7CC3F1B0
:102110000303DB0002FA03F37A6913447B61FB7C5F
:102120000133FB74FB7C032BEAD9FB78002B05D130
:102130007B68DB437A6913407B6103E07A697B68E3
:1021400013437B610023BB740EE0BB7CC3F103032C
:10215000DB007A69DA40BB7CD2B218333B4403F827
:102160000C2CBB7C0133BB74BB7C032BEDD907F17A
:102170000C031A460421902001F092FF0246054B01
:1021800012B211461970C2F307225A7000BF1837F5
:10219000BD4680BD1C03002080B586B000AF7860CE
:1021A0007B687B6107F10C031A460421FA2001F0D9
:1021B000C3FF0246104B12B211461970C2F3072238
:1021C0005A700023FB740EE0FB7CC3F10303183349
:1021D0003B4413F80C2C7B691A707B6901337B61DB
:1021E000FB7C0133FB74FB7C032BEDD900BF00BFEC
:1021F0001837BD4680BD00BF1C03002080B582B0EB
:1022000000AF3B1D1A460421FA2001F095FF02465B
:10221000054B12B211461970C2F307225A7000BF63
:102220000837BD4680BD00BF1C03002080B582B0CA
:1022300000AFFB1D1A460121E72001F07DFF024699
:10224000074B12B211461970C2F307225A70FB797C
:1022500003F07F03DBB218460837BD4680BD00BFE0
:102260001C0300202DE9B0438AB000AF78607B6882
:10227000704A934207D37B686F4A934203D8002386
:1022800087F827301AE07B686C4A934207D97B684D
:102290006B4A934203D8012387F827300EE07B680E
:1022A000684A934207D97B68674A934203D802235E
:1022B00087F8273002E0032387F8273000F0E4FF97
:1022C000386200F0C1FFF86100F0A6FF0346FB761C
:1022D0003A6A7B681A44FB7EF96901FB03F31344F5
:1022E0007B6101F0BDFD03460133FB7497F8273095
:1022F000032B3AD801A252F823F000BF552300085F
:102300003D230008252300080D2300087B694F4A60
:10231000934203D80020FFF747FE26E00120FFF795
:1023200043FE22E07B694A4A934203D80020FFF72C
:102330003BFE1AE00120FFF737FE16E07B69454AB5
:10234000934203D80020FFF72FFE0EE00120FFF795
:102350002BFE0AE07B69404A934203D80020FFF736
:1023600023FE02E00120FFF71FFE786900F06CFEFB
:102370000346BB747868FEF735F804460D46FB7CCF
:1023800097F8272035498A5C02FB03F39B04184623
:10239000FEF738F88046894601F0D6FD0346184618
:1023A000FEF720F802460B4640464946FEF7BEF9C6
:1023B00002460B4620462946FEF78EF802460B469B
:1023C00010461946FEF760FB0346FB60FB685B0D99
:1023D000DBB203F01F03DAB2BB7C5B01DBB2134359
:1023E000DBB23B72FB685B0BDBB27B72FB685B09A9
:1023F000DBB2BB72FB68DBB2DB00DAB297F82730E6
:102400001749CB5C1343DBB2FB7207F108031A4692
:102410000421082001F044FE0246124B12B211467C
:102420001970C2F307225A7000BF2837BD46BDE8B5
:10243000B08300BF80565F2EE02F0C397FE4011778
:10244000606A141CBF60D211E0D7CE14E1F49C097D
:10245000C3E93913058DA2190A1A453344A10008AE
:1024600040A100081C03002080B584B000AF002309
:10247000FB730023BB7301F067FDB86000237B731F
:10248000BB68574A93420FD901F0EAFC0346002B80
:102490000AD10123FB7301F059F87860012001F0A3
:1024A000AFFC7868FFF7DEFE01F050F87860252376
:1024B0007B707B1C1A460121A12001F0F1FD012057
:1024C000FFF7B6FC01F0BAFD464B1B78C3F3460399
:1024D000DBB2402B0DD10123BB736220FFF78EFDD1
:1024E00001F0ACFD3F4B1B78C3F34603DBB2032B7B
:1024F000F6D16620FFF782FD00237B7301F09EFD7D
:10250000384B1B78C3F34603DBB2132B06D17B7B1E
:102510005A1C7A73052B01D101235DE0314B1B78E6
:10252000C3F34603DBB20F2BE8D1FFF7B9FC034638
:10253000FB706220FFF762FD01F080FD294B1B78E4
:10254000C3F34603DBB2032BF6D16520FFF756FD3C
:1025500000237B7301F072FD224B1B78C3F346030B
:10256000DBB2132B06D17B7B5A1C7A73052B01D16E
:10257000012331E01B4B1B78C3F34603DBB20F2B67
:10258000E8D1FFF78DFC0346BB706220FFF736FDF4
:1025900001F054FD134B1B78C3F34603DBB2032B4E
:1025A000F6D1BB7B012B02D16320FFF727FD002072
:1025B000FFF73EFCFB7B002B05D0002001F020FC48
:1025C0007868FFF74FFEFB781846FFF785FCBB786D
:1025D0001846FFF7B5FC002318461037BD4680BDEE
:1025E00080C3C9011C03002080B582B000AF164B28
:1025F0001B78DBB2002B23D0144B1B68144A934288
:1026000008D9124B1B68134A934203D8C02001F02B
:102610006DFB02E0002001F069FB1123FB71FB1D43
:102620001A460121A92001F03BFD2023FB71FB1D6F
:102630001A460121A52001F033FD034B00221A7038
:1026400000BF0837BD4680BD0C00002014030020E9
:102650007FD1F00880A1031C80B582B000AF0B4B86
:102660001B78DBB2012B0DD09823FB71FB1D1A46A2
:102670000121A52001F014FD002001F037FB034BE0
:1026800001221A7000BF0837BD4680BD0C00002033
:1026900080B483B000AF7860054B02221A70054AFF
:1026A0007B68136000BF0C37BD4680BC704700BF1D
:1026B0000C0000201403002080B582B000AFCA23B4
:1026C000FB71FB1D1A460121B22001F0E9FC042335
:1026D000FB71FB1D1A460121A82001F0E1FCFB1D46
:1026E0001A460121A82001F027FD0023FB71FB1DE4
:1026F0001A460121A82001F0D3FC00BF0837BD46CF
:1027000080BD000080B584B000AF786007F1080399
:102710001A460121512001F00FFD0246634B12B20F
:1027200011461970C2F307225A703B7A23F0200336
:10273000DBB23B723B7A43F00103DBB23B7207F141
:1027400008031A460121512001F0AAFC0246574B0A
:1027500012B211461970C2F307225A7007F108032A
:102760001A4601214F2001F0E7FC02464F4B12B2FE
:1027700011461970C2F307225A703B7A23F03003D6
:10278000DBB23B7207F108031A4601214F2001F02A
:1027900087FC0246454B12B211461970C2F307225C
:1027A0005A707B681B7B012B02D108233B7201E02E
:1027B00000233B723A7A7B68DB7A1343DBB23B72CD
:1027C0007B685B7A002B02D17B6801225A727B689E
:1027D0005B7A013BDBB27B727B681A787B685B7843
:1027E0001343DAB27B681B7A1343DBB2BB727B689C
:1027F0009B7AFB727B689B7B012B04D1FB7A43F0B5
:102800001003DBB2FB727B685B7B012B04D1FB7A8C
:1028100043F00103DBB2FB7207F108031A460421FF
:10282000302001F03DFC0023FB731DE0FA7B7B6848
:102830005B785B08DBB2C3F103039A4206DAFB7BE9
:1028400010333B44002203F8082C0AE07B685A68E6
:10285000FB7BDB00DA40FB7BD2B210333B4403F856
:10286000082CFB7B0133FB73FB7B032BDED97B68DE
:102870009B7A002B03D1002000F0FCF802E001203D
:1028800000F0F8F807F108031A460421362001F099
:1028900007FC0246054B12B211461970C2F307221B
:1028A0005A7000BF1037BD4680BD00BF1C0300201A
:1028B00080B584B000AF786007F10C031A4601219F
:1028C0004F2001F039FC02462F4B12B2114619700D
:1028D000C2F307225A707B681B78012B05D13B7B22
:1028E00043F00803DBB23B7304E03B7B23F00803B7
:1028F000DBB23B737B689B78012B05D13B7B43F0BC
:102900000403DBB23B7304E03B7B23F00403DBB244
:102910003B737B681B79012B05D13B7B43F00203A2
:10292000DBB23B7304E03B7B23F00203DBB23B737F
:1029300007F10C031A4601214F2001F0B1FB0246BA
:10294000114B12B211461970C2F307225A707B68FC
:102950005B793B737B68DB787B737B685B78BB73ED
:1029600007F10C031A4603214C2001F099FB0246A3
:10297000054B12B211461970C2F307225A7000BFFC
:102980001037BD4680BD00BF1C03002080B582B05B
:1029900000AFFB1D1A460121302001F0CDFB02469D
:1029A000094B12B211461970C2F307225A70FB7913
:1029B00003F01803002B01D0012300E00023184688
:1029C0000837BD4680BD00BF1C03002080B584B021
:1029D00000AF0346FB800023FB81FFF7D7FF0346D0
:1029E000002B01D00123FB8100F028F803469AB2A6
:1029F000FB891344FB81FB88DAB2FB89DBB2134409
:102A0000DBB27B73FA88FB8913441B12DBB23B7386
:102A100007F10C031A460221342001F041FB024663
:102A2000054B12B211461970C2F307225A7000BF4B
:102A30001037BD4680BD00BF1C03002080B582B0AA
:102A400000AFFB1D1A460121302001F075FB024644
:102A5000074B12B211461970C2F307225A70FB7964
:102A600003F00703DBB218460837BD4680BD00BF40
:102A70001C03002080B584B000AF0346FB7107F152
:102A80000F031A4601214F2001F056FB0246144B5A
:102A900012B211461970C2F307225A70FB79012B4A
:102AA00005D1FB7B43F00103DBB2FB7304E0FB7B4E
:102AB00023F00103DBB2FB7307F10F031A46012178
:102AC0004F2001F0EDFA0246054B12B21146197083
:102AD000C2F307225A7000BF1037BD4680BD00BF49
:102AE0001C03002080B584B000AF0346FB7107F1E2
:102AF0000F031A4601213A2001F01EFB0246144B37
:102B000012B211461970C2F307225A70FB79012BD9
:102B100005D1FB7B43F00203DBB2FB7304E0FB7BDC
:102B200023F00203DBB2FB7307F10F031A46012106
:102B30003A2001F0B5FA0246054B12B2114619705F
:102B4000C2F307225A7000BF1037BD4680BD00BFD8
:102B50001C03002080B584B000AF0346FB7107F171
:102B60000F031A4601213A2001F0E6FA0246124B01
:102B700012B211461970C2F307225A70FB7B03F0A0
:102B80003F03DBB2FB73FA7BFB791343DBB2FB73CE
:102B900007F10F031A4601213A2001F081FA02469B
:102BA000054B12B211461970C2F307225A7000BFCA
:102BB0001037BD4680BD00BF1C03002080B584B027
:102BC00000AF78607B688233DBB25B00DBB2FB7303
:102BD00007F10F031A460121222001F061FA024693
:102BE000054B12B211461970C2F307225A7000BF8A
:102BF0001037BD4680BD00BF1C03002090B58DB0CE
:102C000000AF7860A0237B7407F111031A460121FD
:102C10009F2001F045FA7B68B3F900301846FEF7B3
:102C20000DF804467B685B681846FEF703F8034618
:102C300019462046FEF756F80346A0491846FEF707
:102C400005F903461846FEF713FA0346FB626320B4
:102C500001F0BEFA0023BB7304E0BB7BDBB201339F
:102C6000DBB2BB73BB7BDBB2FF2BF6D101F0E6F925
:102C7000934B1B78C3F34603DBB2402BEAD1914B55
:102C80001B68914A934203D8002001F00BF902E03F
:102C9000012001F007F9622001F09AFA00237B730A
:102CA00004E07B7BDBB20133DBB27B737B7BDBB28B
:102CB000FF2BF6D101F0C2F9814B1B78C3F3460319
:102CC000DBB2032BEAD1F86AFDF7B8FF03464FF0F9
:102CD00091411846FEF706F803461C46794B1B68DF
:102CE0001846FDF7A7FF034619462046FEF7AEF843
:102CF00003461846FEF7BCF903467B857B8D1B0A0D
:102D00009BB2DBB203F00F03DBB2BB777B8DDBB290
:102D1000FB777B689B685A026A4B1B689B09B2FB76
:102D2000F3F3DBB20133DBB23B777B685B681846B9
:102D3000FFF7AEFC07F110031A460121A32001F0B2
:102D4000FBF93B7C23F00203DBB23B7407F1100379
:102D50001A460121A32001F0A3F97B681B6907F142
:102D6000160207F11701184600F038FCFB7D3B7690
:102D70007B685A7BBB7D1343DBB27B7607F1100384
:102D80001A4601211C2001F0D7F97B685B6907F125
:102D9000140207F11501184600F0B8FD3B7D1B0138
:102DA0005AB23B7C5BB203F008035BB213435AB2E6
:102DB0007B7D5BB213435BB2DBB2BB767B689B6906
:102DC00007F1120207F11301184600F0B9FCFB7C71
:102DD0001B015AB2BB7C5BB213435BB2DBB2FB7626
:102DE000384B1B681B0B1846FDF724FF034619469A
:102DF0003648FEF72BF803464FF085411846FDF79D
:102E000067FE03467B62786AFEF758F90346184668
:102E1000FDF710FF03461946786AFDF759FE034691
:102E20004FF07C511846FEF719F90346002B07D0E6
:102E3000786AFEF743F90346DBB20133DBB204E004
:102E4000786AFEF73BF90346DBB2FB731D4B1B6848
:102E50001D4A934202D8FB7B7B773FE0194B1B68EE
:102E60005B0B1846FDF7E6FE034619461748FDF7CB
:102E7000EDFF03464FF085411846FDF729FE034656
:102E80007B62786AFEF71AF903461846FDF7D2FE10
:102E900003461946786AFDF71BFE03464FF07C5146
:102EA0001846FEF7DBF80346002B11D0786AFEF7D0
:102EB00005F90346DBB20133DBB20EE000247449AE
:102EC0001C030020180300207FC3C90120D5AF498F
:102ED000786AFEF7F3F80346DBB27B7707F10F035E
:102EE0001A460121072001F0DBF80246344B12B2EA
:102EF00011461970C2F307225A70324B1B68324ACE
:102F000093420BD92F4B1B68304A93428CBF01234D
:102F10000023DBB2184600F05DF80AE0294B1B687D
:102F20002B4A93428CBF01230023DBB2184600F0EA
:102F300051F87B680C331A4601216C2001F0B0F87F
:102F400007F11C031A4604210C2001F0A9F807F12F
:102F500018031A4604211A2001F0A2F80246184B61
:102F600012B211461970C2F307225A70012000F004
:102F700015FF80233B77E3237B7707F11C031A4679
:102F80000221992001F08CF802460D4B12B2114635
:102F90001970C2F307225A7022233B7707F11C03F2
:102FA0001A460121BC2001F07BF87B685B6818465B
:102FB00000F0AEF9034618463437BD4690BD00BF59
:102FC0001C0300201803002080C3C9017FF0FA020F
:102FD0003F787D0180B584B000AF0346FB710023CC
:102FE000FB7307F10F031A460121012001F0A4F839
:102FF0000246144B12B211461970C2F307225A70DE
:10300000FB79012B05D1FB7B43F04003DBB2FB7363
:1030100004E0FB7B23F04003DBB2FB7307F10F03FB
:103020001A460121012001F03BF80246054B12B27D
:1030300011461970C2F307225A7000BF1037BD46FF
:1030400080BD00BF1C03002080B485B000AF786055
:103050000023FB730023BB600023BB737B683A4AE9
:10306000934206D37B68394A934202D80623BB7346
:103070001FE07B68364A934206D97B68354A934203
:1030800002D80C23BB7314E07B68334A934206D901
:103090007B68324A934202D81023BB7309E07B68F5
:1030A0002F4A934205D97B682E4A934201D82023A8
:1030B000BB737B682C4AA2FB03239B09BA7B02FBF0
:1030C00003F3BB6041F21F631A464FF47A7302FBAD
:1030D00003F3BA689A4202D30F23FB7323E0002361
:1030E000FB7305E097F90F30DBB20133DBB2FB7302
:1030F00097F90F300E2B0CDC97F90F301B4A32F882
:1031000013301A464FF47A7302FB03F3BA689A42FB
:10311000E8D897F90F30002B05D097F90F30DBB2C4
:10312000013BDBB2FB7397F90F305A4203F0070300
:1031300002F0070258BF53425BB2DBB218461437A5
:10314000BD4680BC704700BF80565F2EE02F0C3913
:103150007FE40117606A141CBF60D211E0D7CE145F
:103160003F8FE10860D06F0AD34D621004A20008BF
:1031700080B582B000AF3B1D1A460421082000F044
:10318000DBFF02460C4B12B211461970C2F3072244
:103190005A703B795B0503F078727B795B031A44C4
:1031A000BB795B011344FA79D208D2B213441846B2
:1031B0000837BD4680BD00BF1C03002080B582B02B
:1031C00000AFFB1D1A4601210B2000F0B5FF02469F
:1031D000104B12B211461970C2F307225A70FB79D4
:1031E00003F00703012B01D100230EE0FB7903F06C
:1031F0000703032B01D1012307E0FB7903F0070349
:10320000042B01D1022300E0032318460837BD46F2
:1032100080BD00BF1C03002080B582B000AFFB1D45
:103220001A4601216C2000F087FF0246054B12B2BE
:1032300011461970C2F307225A70FB7918460837F5
:10324000BD4680BD1C03002080B582B000AFFB1DD1
:103250001A4601210C2000F06FFF0246084B12B203
:1032600011461970C2F307225A70FB791A46054BB2
:103270001B6802FB03F3DB0B18460837BD4680BD15
:103280001C0300201803002080B582B000AF3B1D56
:103290001A4602210E2000F04FFF02461A4B12B2CE
:1032A00011461970C2F307225A703B799BB21B0278
:1032B0009AB27B799BB213449BB27B807B8803F4E8
:1032C0000063002B07D07B886FEA03536FEA135328
:1032D0009BB27B8004E07B88C3F30B039BB27B80B3
:1032E000BB1C1B88FB80B7F90630084A126802FB3A
:1032F00003F3002B03DA03F57F3303F2FF339B1450
:1033000018460837BD4680BD1C0300201803002066
:103310002DE9B0438AB000AF7860002387F82730EA
:103320007B68794A934207D37B68784A934203D8F3
:10333000002387F8273022E07B68754A934207D93B
:103340007B68744A934203D8012387F8273016E03C
:103350007B68714A934207D97B68704A934203D8CD
:10336000022387F827300AE07B686D4A934206D92A
:103370007B686C4A934202D8032387F82730FFF713
:1033800083FF3862FFF760FFF861FFF745FF0346F0
:10339000FB763A6A7B681A44FB7EF96901FB03F30A
:1033A00013447B6100F05CFD03460133FB7497F826
:1033B0002730032B39D801A252F823F01534000826
:1033C000FD330008E5330008CD3300087B69564A19
:1033D000934203D80020FEF7E7FD26E00120FEF728
:1033E000E3FD22E07B69514A934203D80020FEF7B7
:1033F000DBFD1AE00120FEF7D7FD16E07B694C4AA1
:10340000934203D80020FEF7CFFD0EE00120FEF727
:10341000CBFD0AE07B69474A934203D80020FEF7C0
:10342000C3FD02E00120FEF7BFFD7869FFF70CFE47
:103430000346BB7497F827303F4AD35C1A467B6833
:1034400002FB03F31846FCF7CDFF04460D46FB7C58
:103450009B041846FCF7D6FF80468946374B1B680D
:103460001846FCF7BFFF02460B4640464946FDF7AB
:103470005DF902460B4620462946FDF72DF8024627
:103480000B4610461946FDF7FFFA0346FB60FB6842
:103490005B0DDBB203F01F03DAB2BB7C5B01DBB276
:1034A0001343DBB23B72FB685B0BDBB27B72FB68E6
:1034B0005B09DBB2BB72FB68DBB2DB00DAB297F808
:1034C00027301F49CB5C1343DBB2FB7207F10803C3
:1034D0001A460421082000F0E3FD0246194B12B2FF
:1034E00011461970C2F307225A70174B1B78012B33
:1034F00003D1FEF7B9FF034600E000231846283742
:10350000BD46BDE8B08300BF80565F2EE02F0C396A
:103510007FE40117606A141CBF60D211E0D7CE149B
:103520003F8FE10860D06F0AE1F49C09C3E93913C9
:10353000058DA2190A1A453348A100081803002076
:103540004CA100081C0300200D0000202DE9B04311
:1035500082B000AFFFF70CFE7860FFF72FFE034646
:10356000FB7000F07DFC03460133BB707868FCF70C
:1035700039FF04460D46174B1B681846FCF732FF0F
:1035800080468946BB78FA7813498A5C02FB03F3CC
:103590009B041846FCF736FF02460B464046494658
:1035A000FDF7C4F802460B4620462946FCF794FF77
:1035B00002460B461046194606F0DAFB02460B4659
:1035C00010461946FDF760FA034618460837BD460F
:1035D000BDE8B0831803002048A1000880B588B07A
:1035E00000AFF860B9607A6000233B760F23FB7769
:1035F0000023BB7600F086FC0346BB7615E04F4BFC
:103600001A6897F91F30C3F11401BB7E0B4422FAEC
:1036100003F3FA689A4202D301233B7605E097F957
:103620001F30DBB2013BDBB2FB773B7EDBB2002B12
:1036300003D197F91F30002BE1DA97F91F30002BE7
:1036400001DA0023FB77FA7F7B681A7097F91F3045
:10365000C3F11703FA689A40384B1968BB7E0533EB
:1036600021FA03F3B2FBF3F37B760023BB7731E05F
:103670007A7EBB7F1344012B21D0FB689AB27B7EFC
:1036800003F58071BB7F0B44013B18462B4B196837
:10369000BB7E053321FA03F303FB00F197F91F30DA
:1036A000C3F1170321FA03F39BB2D31A9AB2BB7F7B
:1036B00012B25B0020333B4423F8102C07E0BB7FA1
:1036C0005B0020333B4447F6FF7223F8102CBB7F8E
:1036D0000133BB77BB7F022BCAD94FF6FF73BB8385
:1036E0000023FB7621E0FB7E5B0020333B4433F973
:1036F000103C002BB8BF5B429BB2BA8B9A4211D9E7
:10370000FB7E5B0020333B4433F9103C002BB8BFF9
:103710005B42BB837A7EFB7E1344DBB2013BDAB2B1
:10372000BB681A70FB7E0133FB76FB7E022BDAD975
:1037300000BF00BF2037BD4680BD00BF180300207A
:1037400080B58AB000AFF860B9607A60012387F86D
:10375000263000F0D7FB0346002B03D0022387F866
:10376000263002E0012387F82630634B1A6897F869
:103770002630B2FBF3F3614AA2FB03235B09FB6132
:10378000002387F8273006E097F92730DBB20133B2
:10379000DBB287F8273097F92730592B0FDC97F9E0
:1037A0002730574A32F813301A46FB6902FB03F3FD
:1037B000544AA2FB0323DB0AFA689A42E4D397F93E
:1037C0002730002B77D097F82730FB76002387F837
:1037D00025303AE097F91B2097F825301344002B49
:1037E00006DC97F91B2097F8253013445A2B1EDC72
:1037F000FB689AB297F91B1097F825300B44013BF0
:103800003F4931F813301946FB6901FB03F33D4989
:10381000A1FB0313DB0A9BB2D31A9AB297F82530A7
:1038200012B25B0028333B4423F8142C08E097F8CD
:1038300025305B0028333B4447F6FF7223F8142CF5
:1038400097F82530013387F8253097F82530022B7B
:10385000C0D94FF6FF737B84002387F8213026E020
:1038600097F821305B0028333B4433F9143C002B9C
:10387000B8BF5B429BB27A8C9A4213D997F8213039
:103880005B0028333B4433F9143C002BB8BF5B4248
:103890007B84FA7E97F821301344DBB2013BDBB224
:1038A00087F8273097F82130013387F8213097F8CF
:1038B0002130022BD4D997F92730134A82FB031207
:1038C0005210DB17D31A5BB2DAB27B681A7097F921
:1038D00027200D4B83FB02135910D317C91A0B462F
:1038E000DB000B44D31A5BB2DAB2BB681A7000BFBC
:1038F0002837BD4680BD00BF180300201F85EB514F
:1039000050A10008FD33A6C9398EE338B0B58AB09E
:1039100000AFF860B9607A600023FB61554B1B680B
:103920001846FDF787F903464FF091411846FDF719
:103930008DFA0346BB61002387F827302AE097F809
:103940002730012202FA03F31846FCF75BFD4FF023
:103950000002494BFCF7C0FD02460B4610461946D3
:10396000FDF792F803461846FDF764F90346B96976
:103970001846FDF7B7F903461846FDF79FFB0346C7
:103980007B61FA687B699A4209D397F82730013343
:1039900087F8273097F82730092BD0D900E000BFEF
:1039A0007B6897F827201A70002387F8273045E0B6
:1039B000FB693B6297F827301846FCF723FD4FF070
:1039C00000022E4BFCF7D2FB02460B46104619466E
:1039D0004FF000024FF08043FCF7A8FE02460B4672
:1039E00014461D467B681B781A46012393401846EF
:1039F000FCF708FD02460B4620462946FCF76CFD05
:103A000002460B4610461946FDF73EF80346184697
:103A1000FDF710F90346B9691846FDF763F9034647
:103A20001846FDF74BFB0346FB61FA68FB699A42B7
:103A300009D397F82730013387F8273097F82730D4
:103A4000072BB5D900E000BFBB6897F827201A7094
:103A5000FA683B6AD21AF969FB68CB1A9A4205D216
:103A6000BB681B78013BDAB2BB681A7000BF28370D
:103A7000BD46B0BD1803002000001E4000002040DD
:103A800090B585B000AF786039600023FB730023E8
:103A9000BB737B68744A93420CD37B68734A93422E
:103AA00008D80023FB737B68714A934222D8012314
:103AB000FB731FE07B686F4A934206D97B686E4AAE
:103AC000934202D80223FB7314E07B686B4A934253
:103AD00006D97B686A4A934202D80323FB7309E044
:103AE0007B68684A934205D97B68674A934201D84C
:103AF0000423FB730123BB734FF000013868FDF70B
:103B0000ADFA0346002B33D0FA7B604913465B00C5
:103B10001344DB000B4408331B6819465C48FDF76F
:103B200095F903461C46FA7B584913465B0013443B
:103B3000DB000B440C331868FA7B544913465B00D6
:103B40001344DB000B4408331B681946FDF77EF96C
:103B5000034619462046FCF7BBFF03461946386862
:103B6000FDF77CFA0346002B02D00023BB733AE03A
:103B70004FF000013868FDF75DFA0346002B32D0A4
:103B8000FA7B424913465B001344DB000B440833C5
:103B90001B6819463F48FDF759F903461C46FA7B56
:103BA0003A4913465B001344DB000B440C3318689E
:103BB000FA7B364913465B001344DB000B440833A1
:103BC0001B681946FDF742F9034619462046FCF7E3
:103BD0007FFF034619463868FDF722FA0346002B9B
:103BE00001D00223BB73FA7BBB7B590027481346E5
:103BF0005B0013445B000B4450F8233039681846CF
:103C0000FDF770F803461C46FA7BBB7B5B00591C32
:103C10001E4813465B0013445B000B4450F82330EE
:103C200019462046FCF756FF0346BB604FF07E5115
:103C3000B868FDF7F5F90346002B03D04FF07E532B
:103C4000BB6008E01449B868FDF708FA0346002B8A
:103C500001D0114BBB60B868FDF730FA0346DBB208
:103C600018461437BD4690BD80565F2EE02F0C39A4
:103C7000FFE8A4357FE40117606A141CBF60D2110D
:103C8000E0D7CE143F8FE10860D06F0A24A200086D
:103C900000005041000020420000B44280B584B0D2
:103CA00000AF03463960FB71FFF750FC03463968EB
:103CB0001846FFF7E5FE0346BB73FB79C3F1170314
:103CC000FB7307F10E02FB7B0121184600F0E8F9B7
:103CD0000246054B12B211461970C2F307225A7000
:103CE00000BF1037BD4680BD1C03002080B584B0E6
:103CF00000AF0346FB7107F10F031A46012118209C
:103D000000F01AFAFB7B03F03F03DBB2FB73FA7B94
:103D1000FB791343DBB2FB7307F10F031A46012152
:103D2000182000F0BDF90246054B12B21146197079
:103D3000C2F307225A7000BF1037BD4680BD00BFD6
:103D40001C03002080B584B000AF0346FB7107F16F
:103D50000F031A460121182000F0EEF9FB7B23F037
:103D60000703DBB2FB73FA7BFB791343DBB2FB7314
:103D700007F10F031A460121182000F091F90246BD
:103D8000054B12B211461970C2F307225A7000BFD8
:103D90001037BD4680BD00BF1C03002080B584B035
:103DA00000AF0346FB710023FB7307F10F031A46B4
:103DB00001211E2000F0C0F9FB79012B05D1FB7B0E
:103DC00063F07F03DBB2FB7304E0FB7B03F07F0354
:103DD000DBB2FB7307F10F031A4601211E2000F02E
:103DE0005FF90246054B12B211461970C2F3072261
:103DF0005A7000BF1037BD4680BD00BF1C030020B5
:103E000080B584B000AF0346FB7107F10F031A467B
:103E100001219E2000F090F9FB79012B05D1FB7B5D
:103E200063F07F03DBB2FB7304E0FB7B03F07F03F3
:103E3000DBB2FB7307F10F031A4601219E2000F04D
:103E40002FF90246054B12B211461970C2F3072230
:103E50005A7000BF1037BD4680BD00BF1C03002054
:103E600080B582B000AFFB1D1A4601219E2000F0F4
:103E700063F902460A4B12B211461970C2F30722C7
:103E80005A70FB79DB09DBB203F00103002B01D090
:103E9000012300E0002318460837BD4680BD00BF5F
:103EA0001C03002080B584B000AF0346FB7107F10E
:103EB0000F031A460121B42000F03EF9FB79012BD3
:103EC00005D1FB7B23F00803DBB2FB7304E0FB7B33
:103ED00043F00803DBB2FB7307F10F031A4601211D
:103EE000B42000F0DDF80246054B12B211461970FD
:103EF000C2F307225A7000BF1037BD4680BD00BF15
:103F00001C03002080B582B000AFFB1D1A460121C2
:103F1000B42000F011F902460A4B12B21146197092
:103F2000C2F307225A70FB79DB08DBB203F001030E
:103F3000002B01D0002300E0012318460837BD46BE
:103F400080BD00BF1C03002080B400AF024B1B6883
:103F50001846BD4680BC70471803002080B483B06B
:103F600000AF7860034A7B68136000BF0C37BD4622
:103F700080BC70471803002080B582B000AF0346B4
:103F8000FB71FB1D1A460121542000F089F80246FE
:103F9000054B12B211461970C2F307225A7000BFC6
:103FA0000837BD4680BD00BF1C03002080B584B02B
:103FB00000AF0346FB7107F10C031A4602214F20A4
:103FC00000F0BAF802461C4B12B211461970C2F347
:103FD00007225A703B7B23F04003DBB23B733B7BF1
:103FE0005AB2FB79DB005BB203F040035BB21343D0
:103FF0005BB2DBB23B737B7B03F01F03DBB27B73F3
:104000007B7B5AB2FB795B015BB213435BB2DBB2E1
:104010007B7307F10C031A4602214F2000F040F891
:104020000246054B12B211461970C2F307225A70AC
:1040300000BF1037BD4680BD1C03002080B582B094
:1040400000AF3B1D1A460221C02000F075F8034660
:10405000094A1380084B1A787B799A42F1D1074BB1
:104060001B7803F00F033A799342EAD100BF00BFF7
:104070000837BD4680BD00BF1C0300201D03002083
:1040800080B500AF054B1B6893F85130DBB2002BB5
:1040900001D1FDF78FFB00BF80BD00BF10000020E5
:1040A00080B588B002AF03463A60FB710B46BB7126
:1040B00000233B74FB797B74072000F01EFB002279
:1040C00010211B4800F0B8FC1A4B186807F10C02CD
:1040D00007F110014FF47A730093022301F0D1FB32
:1040E000144B1868BB799AB24FF47A73396801F0AF
:1040F0007BF9012210210E4800F09EFC072000F001
:10410000EEFA07F1080301333A7B1A7007F108034E
:104110007A7B1A703B89BB8200233A7D62F30703E6
:104120007A7D62F30F2318461837BD4680BD00BF65
:10413000000801401000002080B588B002AF03469F
:104140003A60FB710B46BB7101233B74FB797B74B6
:10415000072000F0D2FA002210211B4800F06CFC6E
:104160001A4B186807F10C0207F110014FF47A732B
:104170000093022301F085FB144B1868BB799AB2B7
:104180004FF47A73396801F06BFA012210210E485E
:1041900000F052FC072000F0A2FA07F108030133F7
:1041A0003A7B1A7007F108037A7B1A703B89BB824D
:1041B00000233A7D62F307037A7D62F30F231846EA
:1041C0001837BD4680BD00BF000801401000002028
:1041D00080B588B002AF0346FB7180233B74FB7946
:1041E0007B74072000F089FA00221021164800F0A5
:1041F00023FC164B186807F10C0207F110014FF46D
:104200007A730093022301F03CFB012210210E4837
:1042100000F012FC072000F062FA07F108030133F6
:104220003A7B1A7007F108037A7B1A703B89BB82CC
:1042300000233A7D62F307037A7D62F30F23184669
:104240001837BD4680BD00BF0008014010000020A7
:1042500080B588B002AF03463960FB714FF47F43ED
:104260003B82072000F049FA002210211A4800F092
:10427000E3FB1A4B186807F10C0207F110014FF429
:104280007A730093022301F0FCFA144B1868FB794F
:104290009AB24FF47A73396801F0A6F8012210211E
:1042A0000D4800F0C9FB072000F019FA07F10803D8
:1042B00001333A7B1A7007F108037A7B1A703B8945
:1042C000BB8200233A7D62F307037A7D62F30F23FA
:1042D00018461837BD4680BD000801401000002078
:1042E00080B588B002AF03463960FB714FF60173A9
:1042F0003B82072000F001FA002210211A4800F04A
:104300009BFB1A4B186807F10C0207F110014FF4E0
:104310007A730093022301F0B4FA144B1868FB7906
:104320009AB24FF47A73396801F09AF90122102198
:104330000D4800F081FB072000F0D1F907F10803D8
:1043400001333A7B1A7007F108037A7B1A703B89B4
:10435000BB8200233A7D62F307037A7D62F30F2369
:1043600018461837BD4680BD0008014010000020E7
:1043700080B500AF01220121024800F05DFB00BFC3
:1043800080BD00BF000C014080B500AF00220121BC
:10439000034800F051FB012000F066F800BF80BD2B
:1043A000000C014080B500AF084B1B68074A43F082
:1043B00010031360032000F06BF90F2000F008F8E1
:1043C000FDF7FEF90023184680BD00BF0020024023
:1043D00080B582B000AF7860124B1A68124B1B7820
:1043E00019464FF47A73B3FBF1F3B2FBF3F31846BB
:1043F00000F091F90346002B01D001230EE07B6809
:104400000F2B0AD8002279684FF0FF3000F04BF9EB
:10441000064A7B681360002300E001231846083732
:10442000BD4680BD080000201800002014000020B8
:1044300080B400AF054B1B781A46054B1B6813442C
:10444000034A136000BFBD4680BC704718000020BF
:104450002003002080B400AF024B1B681846BD4605
:1044600080BC70472003002080B584B000AF786026
:10447000FFF7F0FFB8607B68FB60FB68B3F1FF3FBC
:1044800005D00A4B1B781A46FB681344FB6000BF3B
:10449000FFF7E0FF0246BB68D31AFA689A42F7D8E2
:1044A00000BF00BF1037BD4680BD00BF1800002010
:1044B00080B485B000AF78607B6803F00703FB60D1
:1044C0000C4BDB68BB60BA684FF6FF031340BB6060
:1044D000FB681A02BB68134343F0BF6343F4003325
:1044E000BB60044ABB68D36000BF1437BD4680BCC4
:1044F000704700BF00ED00E080B400AF044BDB6804
:104500001B0A03F007031846BD4680BC704700BF76
:1045100000ED00E080B483B000AF0346FB7197F973
:104520000730002B0BDBFB7903F01F02064997F9DC
:1045300007305B09012000FA02F241F8232000BF96
:104540000C37BD4680BC704700E100E080B483B00A
:1045500000AF0346FB7197F90730002B12DBFB79A4
:1045600003F01F020A4997F907305B09012000FA9E
:1045700002F2203341F82320BFF34F8F00BFBFF377
:104580006F8F00BF00BF0C37BD4680BC704700BFB7
:1045900000E100E080B483B000AF03463960FB71F6
:1045A00097F90730002B0ADB3B68DAB20C4997F920
:1045B00007301201D2B20B4483F800230AE03B68B3
:1045C000DAB20849FB7903F00F03043B1201D2B2BF
:1045D0000B441A7600BF0C37BD4680BC704700BF45
:1045E00000E100E000ED00E080B489B000AFF860C9
:1045F000B9607A60FB6803F00703FB61FB69C3F1F4
:104600000703042B28BF0423BB61FB690433062B7B
:1046100002D9FB69033B00E000237B614FF0FF32CE
:10462000BB6902FA03F3DA43BB681A407B699A401C
:104630004FF0FF317B6901FA03F3D9437B680B40EC
:10464000134318462437BD4680BC704780B582B0FE
:1046500000AF78607B68013BB3F1807F01D3012319
:104660000FE00A4A7B68013B53600F214FF0FF3097
:10467000FFF790FF054B00229A60044B07221A6057
:10468000002318460837BD4680BD00BF10E000E09B
:1046900080B582B000AF78607868FFF709FF00BF8F
:1046A0000837BD4680BD80B586B000AF0346B9600F
:1046B0007A60FB7300237B61FFF71EFF78617A68E5
:1046C000B9687869FFF790FF024697F90F301146F5
:1046D0001846FFF75FFF00BF1837BD4680BD80B5A5
:1046E00082B000AF0346FB7197F907301846FFF719
:1046F00011FF00BF0837BD4680BD80B582B000AF56
:104700000346FB7197F907301846FFF71FFF00BFFC
:104710000837BD4680BD80B582B000AF786078684C
:10472000FFF794FF034618460837BD4680BD0000DA
:1047300080B48BB000AF7860396000237B620023C7
:104740003B6269E101227B6A02FA03F3FB613B6889
:104750001B68FA691340BB61BA69FB699A4240F071
:1047600058813B685B689A4A93425ED0984A93426C
:1047700075D8984A934258D0964A93426FD8964A31
:10478000934252D0944A934269D8944A93424CD06F
:10479000924A934263D8924A934246D0904A9342B7
:1047A0005DD8122B2AD8122B59D801A252F823F027
:1047B0002B48000805480008174800085948000819
:1047C0005F4800085F4800085F4800085F4800082D
:1047D0005F4800085F4800085F4800085F4800081D
:1047E0005F4800085F4800085F4800085F4800080D
:1047F0005F4800080D48000821480008794A9342A4
:1048000013D02CE03B68DB683B6229E03B68DB6847
:1048100004333B6224E03B68DB6808333B621FE003
:104820003B68DB680C333B621AE03B689B68002BFB
:1048300002D104233B6213E03B689B68012B05D146
:1048400008233B627B68FA691A6109E008233B622E
:104850007B68FA695A6103E000233B6200E000BF15
:10486000BB69FF2B01D87B6801E07B6804337B6167
:10487000BB69FF2B02D87B6A9B0002E07B6A083B86
:104880009B003B617B691A680F213B6901FA03F3C6
:10489000DB431A40396A3B6901FA03F31A437B6927
:1048A0001A603B685B6803F08053002B00F0B18016
:1048B0004D4B9B694C4A43F0010393614A4B9B6902
:1048C00003F00103BB60BB68484A7B6A9B08023364
:1048D00052F82330FB607B6A03F003039B000F2236
:1048E00002FA03F3DB43FA681340FB607B68404A3B
:1048F000934213D07B683F4A93420DD07B683E4A77
:10490000934207D07B683D4A934201D1032306E0DE
:10491000042304E0022302E0012300E000237A6A7A
:1049200002F0030292009340FA681343FB602F49A0
:104930007B6A9B080233FA6841F823203B685B6876
:1049400003F48033002B06D02D4B1A682C49BB6929
:1049500013430B6006E02A4B1A68BB69DB43284906
:1049600013400B603B685B6803F40033002B06D0F8
:10497000234B5A682249BB6913434B6006E0204B26
:104980005A68BB69DB431E4913404B603B685B6858
:1049900003F48013002B06D0194B9A681849BB69A1
:1049A00013438B6006E0164B9A68BB69DB431449DE
:1049B00013408B603B685B6803F40013002B21D02D
:1049C0000F4BDA680E49BB691343CB6021E000BF8F
:1049D00000003210000031100000221000002110F1
:1049E00000001210000011100010024000000140F1
:1049F00000080140000C014000100140001401407B
:104A0000000401400B4BDA68BB69DB4309491340E2
:104A1000CB607B6A01337B623B681A687B6A22FA4F
:104A200003F3002B7FF48EAE00BF00BF2C37BD46D2
:104A300080BC70470004014080B483B000AF786050
:104A40000B467B8013467B707B78002B03D07A88E3
:104A50007B681A6103E07B881A047B681A6100BFD7
:104A60000C37BD4680BC704780B582B000AF0346AE
:104A7000FB80084B5A69FB881340002B06D0054A7F
:104A8000FB885361FB88184600F006F800BF083722
:104A9000BD4680BD0004014080B483B000AF034632
:104AA000FB8000BF0C37BD4680BC704780B586B028
:104AB00000AF78607B68002B01D1012372E27B6834
:104AC0001B6803F00103002B00F08780924B5B68AA
:104AD00003F00C03042B0CD08F4B5B6803F00C032A
:104AE000082B12D18C4B5B6803F48033B3F5803F05
:104AF0000BD1894B1B6803F40033002B6CD07B680F
:104B00005B68002B68D101234CE27B685B68B3F5DE
:104B1000803F06D1804B1B687F4A43F4803313608B
:104B20002EE07B685B68002B0CD17B4B1B687A4ABC
:104B300023F480331360784B1B68774A23F4802377
:104B400013601DE07B685B68B3F5A02F0CD1724B3E
:104B50001B68714A43F4802313606F4B1B686E4AD5
:104B600043F4803313600BE06B4B1B686A4A23F4F9
:104B700080331360684B1B68674A23F480231360FB
:104B80007B685B68002B13D0FFF764FC386108E09A
:104B9000FFF760FC02463B69D31A642B01D903235B
:104BA00000E25D4B1B6803F40033002BF0D014E0EF
:104BB000FFF750FC386108E0FFF74CFC02463B6908
:104BC000D31A642B01D90323ECE1534B1B6803F484
:104BD0000033002BF0D100E000BF7B681B6803F0BE
:104BE0000203002B63D04C4B5B6803F00C03002BDB
:104BF0000BD0494B5B6803F00C03082B1CD1464BD0
:104C00005B6803F48033002B16D1434B1B6803F021
:104C10000203002B05D07B681B69012B01D0012307
:104C2000C0E13D4B1B6823F0F8027B685B69DB0049
:104C3000394913430B603AE07B681B69002B20D095
:104C4000364B01221A60FFF705FC386108E0FFF7D8
:104C500001FC02463B69D31A022B01D90323A1E1CF
:104C60002D4B1B6803F00203002BF0D02A4B1B686E
:104C700023F0F8027B685B69DB00274913430B6074
:104C800015E0264B00221A60FFF7E4FB386108E0CC
:104C9000FFF7E0FB02463B69D31A022B01D903233D
:104CA00080E11D4B1B6803F00203002BF0D17B68F1
:104CB0001B6803F00803002B3AD07B689B69002B2C
:104CC00019D0174B01221A60FFF7C4FB386108E0C6
:104CD000FFF7C0FB02463B69D31A022B01D903231D
:104CE00060E10D4B5B6A03F00203002BF0D0012062
:104CF00000F0D8FA1CE00A4B00221A60FFF7AAFB6A
:104D000038610FE0FFF7A6FB02463B69D31A022B7E
:104D100008D9032346E100BF0010024000004242D0
:104D200080044242924B5B6A03F00203002BE9D1FC
:104D30007B681B6803F00403002B00F0A6800023AF
:104D4000FB758B4BDB6903F08053002B0DD1884B37
:104D5000DB69874A43F08053D361854BDB6903F0FD
:104D60008053BB60BB680123FB75824B1B6803F457
:104D70008073002B18D17F4B1B687E4A43F48073ED
:104D80001360FFF767FB386108E0FFF763FB02463B
:104D90003B69D31A642B01D9032303E1754B1B68CC
:104DA00003F48073002BF0D07B68DB68012B06D105
:104DB0006F4B1B6A6E4A43F0010313622DE07B6860
:104DC000DB68002B0CD16A4B1B6A694A23F0010394
:104DD0001362674B1B6A664A23F0040313621CE0EC
:104DE0007B68DB68052B0CD1614B1B6A604A43F082
:104DF000040313625E4B1B6A5D4A43F001031362B6
:104E00000BE05B4B1B6A5A4A23F001031362584BB9
:104E10001B6A574A23F0040313627B68DB68002B8C
:104E200015D0FFF717FB38610AE0FFF713FB0246C6
:104E30003B69D31A41F28832934201D90323B1E08E
:104E40004B4B1B6A03F00203002BEED014E0FFF77C
:104E500001FB38610AE0FFF7FDFA02463B69D31A0D
:104E600041F28832934201D903239BE0404B1B6AF5
:104E700003F00203002BEED1FB7D012B05D13C4B4F
:104E8000DB693B4A23F08053D3617B68DB69002BED
:104E900000F08780364B5B6803F00C03082B61D071
:104EA0007B68DB69022B46D1334B00221A60FFF787
:104EB000D1FA386108E0FFF7CDFA02463B69D31A10
:104EC000022B01D903236DE0294B1B6803F000730B
:104ED000002BF0D17B681B6AB3F5803F08D1244BCF
:104EE0005B6823F400327B689B68214913434B6065
:104EF0001F4B5B6823F474127B68196A7B685B6ADA
:104F00000B431B4913434B601B4B01221A60FFF7F5
:104F1000A1FA386108E0FFF79DFA02463B69D31A0F
:104F2000022B01D903233DE0114B1B6803F00073F2
:104F3000002BF0D035E0104B00221A60FFF78AFA00
:104F4000386108E0FFF786FA02463B69D31A022B64
:104F500001D9032326E0064B1B6803F00073002BE6
:104F6000F0D11EE07B68DB69012B07D1012319E03A
:104F70000010024000700040600042420B4B5B6832
:104F8000FB60FB6803F480327B681B6A9A4206D19F
:104F9000FB6803F470127B685B6A9A4201D00123BC
:104FA00000E0002318461837BD4680BD00100240BF
:104FB00080B584B000AF786039607B68002B01D188
:104FC0000123D0E06A4B1B6803F007033A689A425A
:104FD00010D9674B1B6823F0070265493B681343F0
:104FE0000B60634B1B6803F007033A689A4201D0D9
:104FF0000123B8E07B681B6803F00203002B20D07C
:105000007B681B6803F00403002B05D0594B5B68D9
:10501000584A43F4E06353607B681B6803F008035D
:10502000002B05D0534B5B68524A43F460535360E6
:10503000504B5B6823F0F0027B689B684D4913433B
:105040004B607B681B6803F00103002B40D07B683A
:105050005B68012B07D1474B1B6803F40033002B1F
:1050600015D101237FE07B685B68022B07D1414BA0
:105070001B6803F00073002B09D1012373E03D4B43
:105080001B6803F00203002B01D101236BE0394BB5
:105090005B6823F003027B685B68364913434B600F
:1050A000FFF7D8F9F8600AE0FFF7D4F90246FB6889
:1050B000D31A41F28832934201D9032353E02D4B96
:1050C0005B6803F00C027B685B689B009A42EBD143
:1050D000274B1B6803F007033A689A4210D2244B0F
:1050E0001B6823F0070222493B6813430B60204BE7
:1050F0001B6803F007033A689A4201D0012332E0AB
:105100007B681B6803F00403002B08D0194B5B6815
:1051100023F4E0627B68DB68164913434B607B68CD
:105120001B6803F00803002B09D0124B5B6823F4C3
:1051300060527B681B69DB000E4913434B6000F033
:1051400021F802460B4B5B681B0903F00F030A4969
:10515000CB5C22FA03F3094A1360094B1B6818461B
:10516000FFF736F9002318461037BD4680BD00BF53
:10517000002002400010024028A100080800002082
:105180001400002090B48AB000AF294B3C1D0FCB17
:1051900084E80F0040F201233B800023FB610023E1
:1051A000BB6100237B6200237B6100233B62214BB8
:1051B0005B68FB61FB6903F00C03042B02D0082B36
:1051C00003D02BE01C4B3B622BE0FB699B0C03F0F4
:1051D0000F0328333B4413F8243C7B61FB6903F441
:1051E0008033002B12D0134B5B685B0C03F0010380
:1051F00028333B4413F8283CBB617B690E4A03FB10
:1052000002F2BB69B2FBF3F37B6204E07B690B4AF9
:1052100002FB03F37B627B6A3B6202E0064B3B626C
:1052200000BF3B6A18462837BD4690BC704700BF98
:10523000309F00080010024000127A0000093D0073
:1052400080B400AF024B1B681846BD4680BC704757
:105250000800002080B500AFFFF7F2FF0246054BC3
:105260005B681B0A03F007030349CB5C22FA03F3D4
:10527000184680BD0010024038A1000880B500AF7C
:10528000FFF7DEFF0246054B5B68DB0A03F007030E
:105290000349CB5C22FA03F3184680BD001002409C
:1052A00038A1000880B485B000AF78600A4B1B6855
:1052B0000A4AA2FB03235B0A7A6802FB03F3FB6042
:1052C00000BFFB685A1EFA60002BF9D100BF00BF77
:1052D0001437BD4680BC704708000020D34D6210D3
:1052E00080B582B000AF78607B68002B01D10123CC
:1052F00076E07B685B6A002B08D17B685B68B3F55E
:10530000827F09D07B680022DA6105E07B68002299
:105310001A617B6800225A617B6800229A627B686E
:1053200093F85130DBB2002B06D17B68002283F862
:1053300050207868FCF776FA7B68022283F85120C7
:105340007B681B681A687B681B6822F040021A6041
:105350007B685B6803F482727B689B6803F4044398
:105360001A437B68DB6803F400631A437B681B699C
:1053700003F002031A437B685B6903F001031A43DD
:105380007B689B6903F400731A437B68DB6903F055
:1053900038031A437B681B6A03F0800342EA030167
:1053A0007B689B6A03F400527B681B680A431A609F
:1053B0007B689B691A0C7B681B6802F004025A60C8
:1053C0007B681B68DA697B681B6822F40062DA611B
:1053D0007B6800225A657B68012283F851200023F4
:1053E00018460837BD4680BD80B588B000AFF8606C
:1053F000B9603B601346FB800023FB77FB6893F8A2
:105400005030012B01D1022326E1FB68012283F8F1
:105410005020FFF71FF8B861FB88FB82FB6893F808
:105420005130DBB2012B02D00223FB770BE1BB68CA
:10543000002B02D0FB88002B02D10123FB7702E175
:10544000FB68032283F85120FB6800225A65FB6841
:10545000BA681A63FB68FA889A86FB68FA88DA8663
:10546000FB6800229A63FB6800229A87FB6800228F
:10547000DA87FB6800225A64FB6800221A64FB6822
:105480009B68B3F5004F0FD1FB681B681A68FB6877
:105490001B6822F040021A60FB681B681A68FB68F0
:1054A0001B6842F480421A60FB681B681B6803F0AB
:1054B0004003402B07D0FB681B681A68FB681B6819
:1054C00042F040021A60FB68DB68B3F5006F4BD115
:1054D000FB685B68002B02D0FB8A012B3ED1FB6886
:1054E0001B6B1A88FB681B68DA60FB681B6B9A1CD5
:1054F000FB681A63FB68DB8E9BB2013B9AB2FB68C8
:10550000DA862BE0FB681B689B6803F00203022B22
:1055100012D1FB681B6B1A88FB681B68DA60FB689A
:105520001B6B9A1CFB681A63FB68DB8E9BB2013B0A
:105530009AB2FB68DA8611E0FEF78CFF0246BB697F
:10554000D31A3A689A4203D83B68B3F1FF3F02D1BD
:105550003B68002B02D10323FB7774E0FB68DB8EF2
:105560009BB2002BCED14CE0FB685B68002B02D0D5
:10557000FB8A012B40D1FB681A6BFB681B680C335C
:1055800012781A70FB681B6B5A1CFB681A63FB6865
:10559000DB8E9BB2013B9AB2FB68DA862CE0FB689B
:1055A0001B689B6803F00203022B13D1FB681A6B84
:1055B000FB681B680C3312781A70FB681B6B5A1C53
:1055C000FB681A63FB68DB8E9BB2013B9AB2FB68F7
:1055D000DA8611E0FEF73EFF0246BB69D31A3A684D
:1055E0009A4203D83B68B3F1FF3F02D13B68002BDE
:1055F00002D10323FB7726E0FB68DB8E9BB2002BF6
:10560000CDD1BA693968F86800F0B8FB0346002BC1
:1056100002D0FB6820225A65FB689B68002B0AD1E8
:1056200000233B61FB681B68DB683B61FB681B6810
:105630009B683B613B69FB685B6D002B02D00123DB
:10564000FB7700E000BFFB68012283F85120FB6874
:10565000002283F85020FB7F18462037BD4680BDCE
:1056600080B588B002AFF860B9603B601346FB803C
:105670000023FB75FB685B68B3F5827F12D1FB6882
:105680009B68002B0ED1FB68042283F85120FA8816
:105690003B6800931346BA68B968F86800F0F1F8FF
:1056A0000346EAE0FB6893F85030012B01D1022356
:1056B000E3E0FB68012283F85020FEF7CBFE38615F
:1056C000FB6893F85130DBB2012B02D00223FB754B
:1056D000CAE0BB68002B02D0FB88002B02D101235B
:1056E000FB75C1E0FB68042283F85120FB680022AF
:1056F0005A65FB68BA689A63FB68FA889A87FB6800
:10570000FA88DA87FB6800221A63FB6800229A860F
:10571000FB680022DA86FB6800221A64FB6800221C
:105720005A64FB689B68B3F5004F0FD1FB681B6898
:105730001A68FB681B6822F040021A60FB681B684D
:105740001A68FB681B6822F480421A60FB681B68B9
:105750001B6803F04003402B07D0FB681B681A68E6
:10576000FB681B6842F040021A60FB68DB68002B94
:1057700062D12EE0FB681B689B6803F00103012BDC
:1057800015D1FB681B6803F10C02FB689B6B127858
:10579000D2B21A70FB689B6B5A1CFB689A63FB6859
:1057A000DB8F9BB2013B9AB2FB68DA8711E0FEF710
:1057B00051FE02463B69D31A3A689A4203D83B68C5
:1057C000B3F1FF3F02D13B68002B02D10323FB75ED
:1057D0004AE0FB68DB8F9BB2002BCBD131E0FB684A
:1057E0001B689B6803F00103012B13D1FB681B6846
:1057F000DA68FB689B6B92B21A80FB689B6B9A1C01
:10580000FB689A63FB68DB8F9BB2013B9AB2FB6833
:10581000DA8711E0FEF71EFE02463B69D31A3A68AA
:105820009A4203D83B68B3F1FF3F02D13B68002B9B
:1058300002D10323FB7517E0FB68DB8F9BB2002BC3
:10584000CDD13A693968F86800F046FA0346002B72
:1058500002D0FB6820225A65FB685B6D002B02D0EA
:105860000123FB7500E000BFFB68012283F8512093
:10587000FB68002283F85020FB7D18461837BD4690
:1058800080BD80B58CB000AFF860B9607A607B8075
:105890000123FB62002387F82B30FB6893F850301C
:1058A000012B01D102238AE1FB68012283F85020F9
:1058B000FEF7D0FD7862FB6893F8513087F823300B
:1058C000FB685B68FB617B887B8397F82330012B47
:1058D0000FD0FB69B3F5827F07D1FB689B68002B73
:1058E00003D197F82330042B03D0022387F82B3001
:1058F0005BE1BB68002B05D07B68002B02D07B8866
:10590000002B03D1012387F82B304EE1FB6893F87D
:105910005130DBB2042B03D0FB68052283F8512001
:10592000FB6800225A65FB687A689A63FB687A888C
:10593000DA87FB687A889A87FB68BA681A63FB681B
:105940007A88DA86FB687A889A86FB6800221A646D
:10595000FB6800225A64FB681B681B6803F0400365
:10596000402B07D0FB681B681A68FB681B6842F075
:1059700040021A60FB68DB68B3F5006F78D1FB6802
:105980005B68002B02D07B8B012B66D1FB681B6B05
:105990001A88FB681B68DA60FB681B6B9A1CFB6843
:1059A0001A63FB68DB8E9BB2013B9AB2FB68DA8616
:1059B00053E0FB681B689B6803F00203022B1BD1BA
:1059C000FB68DB8E9BB2002B16D0FB6A012B13D138
:1059D000FB681B6B1A88FB681B68DA60FB681B6B33
:1059E0009A1CFB681A63FB68DB8E9BB2013B9AB280
:1059F000FB68DA860023FB62FB681B689B6803F088
:105A00000103012B19D1FB68DB8F9BB2002B14D053
:105A1000FB681B68DA68FB689B6B92B21A80FB68B4
:105A20009B6B9A1CFB689A63FB68DB8F9BB2013B04
:105A30009AB2FB68DA870123FB62FEF70BFD024690
:105A40007B6AD31ABA6B9A4207D8BB6BB3F1FF3F9C
:105A500003D0032387F82B30A7E0FB68DB8E9BB2D3
:105A6000002BA6D1FB68DB8F9BB2002BA1D17CE081
:105A7000FB685B68002B02D07B8B012B6BD1FB6832
:105A80001A6BFB681B680C3312781A70FB681B6B6F
:105A90005A1CFB681A63FB68DB8E9BB2013B9AB20F
:105AA000FB68DA8657E0FB681B689B6803F002031B
:105AB000022B1CD1FB68DB8E9BB2002B17D0FB6A3C
:105AC000012B14D1FB681A6BFB681B680C3312782E
:105AD0001A70FB681B6B5A1CFB681A63FB68DB8E31
